:0300000002030EEA
:10030E0078FFE4F6D8FD90F0007F007E06E4F0A3BF
:0A031E00DFFCDEFA75813B02036389
:0806390048565F4E470D0A0010
:0205B500C10083
:1005D20075BF0175BA10E4F5BF12062D120569E464
:0B05E200F5B8F5B9F5F8F5F9D2AF2235
:10050B00E4FDFCC3ED9FEE6480F8EC64809850230F
:10051B00E4FBFA900000A3E582B430FAE583B475EE
:10052B00F50BBB00010AEB64194A70E70DBD000126
:03053B000C80D061
:01053E00229A
:100003001205D230000E12002040097BFF7A0679D8
:0D001300391205ED7F017E0012050B80E61D
:0C062D00759104E4F59075B1FFF5B02262
:10058F00556E6B6E6F776E20436F6D6D616E640D80
:10059F000A00000000000000000000000000000042
:0605AF0000000000000046
:1005B700140A000000000000000000000000000016
:0A05C7000000000000000208000020
:1005690075B2025380FB438604E4F5B24386044323
:10057900B301F5BD75987075EAD575BE8143E9017A
:0605890043BD01D2AC22CB
:1005ED0012011C6010F5993099FDC299740129F919
:0505FD00E43AFA80EB76
:0106020022D5
:06025B008B228A23892496
:100261001206188E258F2678277C007D007BFF7A69
:100271000579A17E007F141200F67E007F147D00B7
:100281007B007A007927120162E526640545257015
:1002910072AB22AA23A92412011CB4240A900004DF
:1002A10012013564246002805AAB22AA23A924904A
:1002B1000001120135249E6017146024146031146A
:1002C10060312404703D900003120135FF0204C621
:1002D100AB22AA23A924900003120135FF02048155
:1002E100AB22AA23A924900003120135FF02043B8B
:1002F100020603AB22AA23A924900003120135FFB1
:0C03010002053F7BFF7A05798F1205EDA5
:01030D0022CD
:030023000203A82D
:1003A800C0E0C0F0C083C082C0D075D000C000C01B
:1003B80001C002C003C004C005C006C00775BF80E5
:0803C800309902C29930984DF2
:1003D000859921E521640D6013E521640A600DC350
:1003E000E5099412E5086480948040207B007A003F
:1003F000790A12025B7E007F147D007B007A00790F
:100400000A120162750800750900800F740A250937
:0D041000F8A6210509E50970020508C2984B
:10041D0075BFC0D007D006D005D004D003D002D010
:0E042D0001D000D0D0D082D083D0F0D0E03209
:10018E0023622330230D0A0023622331230D0A003C
:10019E0023622332230D0A0023622333230D0A0028
:1001AE00556E6B6E6F776E204C43204368616E6E9A
:1001BE00656C2E0D0A0023612330230D0A00236186
:1001CE002331230D0A0023612332230D0A002361FC
:1001DE002333230D0A00556E6B6E6F776E204C43E2
:1001EE0052204368616E6E656C2E0D0A0048565F94
:1001FE004F4B0D0A0048565F4E470D0A00236323EE
:10020E0031230D0A0023632330230D0A00556E6B34
:10021E006E6F776E20436861726765204D6F6465FF
:10022E000D0A0023652331230D0A00236523302395
:10023E000D0A00556E6B6E6F776E204856204D6F0F
:0D024E006E69746F7220436F64650D0A00C5
:10048100C2B1C2B3C2B5EF24CF60121460191460B7
:1004910020240370267BFF7A01798E8024D2B17BE0
:1004A100FF7A017996801AD2B37BFF7A01799E8017
:1004B10010D2B57BFF7A0179A680067BFF7A01799C
:0504C100AE1205ED2262
:1004C600C2B0C2B2C2B4EF24CF6012146019146075
:1004D60020240370267BFF7A0179C48024D2B07B66
:1004E600FF7A0179CC801AD2B27BFF7A0179D48067
:1004F60010D2B47BFF7A0179DC80067BFF7A017922
:05050600E41205ED22E6
:03002000A2C82251
:100603001200207BFF50067A0179FB80047A02797D
:05061300031205ED22B9
:10043B008F3BE53B64317021120020400EC2B6C2E7
:10044B00B7C2927BFF7A0279038027C292D2B6D2CF
:10045B00B77BFF7A02790B8019E53BB4300EC2B73C
:10046B00C2B6D2927BFF7A02791380067BFF7A02A7
:06047B00791B1205ED22C1
:10053F008F3BE53BB4310AD2007BFF7A02793180E1
:10054F0015E53BB4300AC2007BFF7A027939800689
:0A055F007BFF7A0279411205ED22BC
:10032800020003E493A3F8E493A34003F68001F2E8
:1003380008DFF48029E493A3F85407240CC8C333D6
:10034800C4540F4420C8834004F456800146F6DFA5
:10035800E4800B01020408102040809005B5E47E7B
:10036800019360BCA3FF543F30E509541FFEE4939A
:10037800A360010ECF54C025E060A840B8E493A361
:10038800FAE493A3F8E493A3C8C582C8CAC583CA8C
:10039800F0A3C8C582C8CAC583CADFE9DEE780BE44
:0105D1000029
:10002600E709F608DFFA8046E709F208DFFA803EBC
:1000360088828C83E709F0A3DFFA8032E309F608A9
:10004600DFFA8078E309F208DFFA807088828C8311
:10005600E309F0A3DFFA806489828A83E0A3F608C5
:10006600DFFA805889828A83E0A3F208DFFA804C9F
:1000760080D280FA80C680D4806980F28033801076
:1000860080A680EA809A80A880DA80E280CA8033DF
:1000960089828A83ECFAE493A3C8C582C8CCC58357
:1000A600CCF0A3C8C582C8CCC583CCDFE9DEE78027
:1000B6000D89828A83E493A3F608DFF9ECFAA9F0A6
:1000C600EDFB2289828A83ECFAE0A3C8C582C8CCFC
:1000D600C583CCF0A3C8C582C8CCC583CCDFEADE15
:1000E600E880DB89828A83E493A3F208DFF980CC77
:1000F60088F0EF60010E4E60C388F0ED2402B40470
:100106000050B9F582EB2402B4040050AF23234516
:06011600822390007673C5
:10011C00BB010689828A83E0225002E722BBFE02E1
:09012C00E32289828A83E4932214
:10013500BB010CE58229F582E5833AF583E022507F
:1001450006E92582F8E622BBFE06E92582F8E222C9
:0D015500E58229F582E5833AF583E49322E3
:10061800E4FFFE12011C600C0FEF70010E09E97077
:05062800F20A80EF2240
:10016200EF4E6012EF60010EEDBB010B89828A83B4
:10017200F0A3DFFCDEFA2289F05007F709DFFCA9C1
:0C018200F022BBFEFCF309DFFCA9F02218
:00000001FF
