:100000000203FCE4FFFE12011C600C0FEF70010EF6
:1000100009E970F20A80EF2248565F4E470D0A0048
:10002000A2C8220208B9E709F608DFFA8046E70904
:10003000F208DFFA803E88828C83E709F0A3DFFABA
:100040008032E309F608DFFA8078E309F208DFFA84
:10005000807088828C83E309F0A3DFFA8064898250
:100060008A83E0A3F608DFFA805889828A83E0A3B6
:10007000F208DFFA804C80D280FA80C680D4806992
:1000800080F28033801080A680EA809A80A880DA8F
:1000900080E280CA803389828A83ECFAE493A3C821
:1000A000C582C8CCC583CCF0A3C8C582C8CCC583E3
:1000B000CCDFE9DEE7800D89828A83E493A3F6082A
:1000C000DFF9ECFAA9F0EDFB2289828A83ECFAE0F1
:1000D000A3C8C582C8CCC583CCF0A3C8C582C8CC90
:1000E000C583CCDFEADEE880DB89828A83E493A3E0
:1000F000F208DFF980CC88F0EF60010E4E60C38813
:10010000F0ED2402B4040050B9F582EB2402B404EB
:100110000050AF232345822390007673BB010689EC
:10012000828A83E0225002E722BBFE02E322898218
:100130008A83E49322BB010CE58229F582E5833AA8
:10014000F583E0225006E92582F8E622BBFE06E9A7
:100150002582F8E222E58229F582E5833AF583E4F7
:100160009322BB010A89828A83E0F5F0A3E0225042
:100170000687F009E71922BBFE07E3F5F009E3194A
:100180002289828A83E493F5F074019322BB0107EC
:1001900089828A83020210500B09C5F027F7C5F047
:1001A0001937F722BBFE0D09F8E325F0F3C5F01966
:1001B000E338F322F889828A8374019325F0C5F02D
:1001C000F8E4933822BB010A89828A83F0E5F0A320
:1001D000F0225006F709A7F01922BBFE06F3E5F05E
:1001E00009F31922EF4E6012EF60010EEDBB010B17
:1001F00089828A83F0A3DFFCDEFA2289F05007F7B8
:1002000009DFFCA9F022BBFEFCF309DFFCA9F02208
:10021000C5F0F8A3E028F0C5F0F8E5821582700279
:100220001583E038F0220D0A0023622330230D0AE3
:100230000023622331230D0A0023622332230D0A97
:100240000023622333230D0A00556E6B6E6F776EA9
:10025000204C43204368616E6E656C2E0D0A0023AE
:10026000612330230D0A0023612331230D0A00236B
:10027000612332230D0A0023612333230D0A005525
:100280006E6B6E6F776E204C4352204368616E6ECA
:10029000656C2E0D0A0048565F4F4B0D0A004856FC
:1002A0005F4E470D0A0023632331230D0A002363A9
:1002B0002330230D0A00556E6B6E6F776E204368F6
:1002C00061726765204D6F64650D0A0023652331F7
:1002D000230D0A0023652330230D0A00556E6B6E33
:1002E0006F776E204856204D6F6E69746F72204391
:1002F0006F64650D0A0043444541424330302D4D43
:100300004E4F502D343164342D613731362D343415
:100310003636353534344546474800556E6B6E6F7A
:10032000776E20436F6D6D616E640D0A00444F4E11
:10033000450D0A0000000000000000000000000061
:1003400000000000000000000000000000000000AD
:10035000000000000000000000000000000000009D
:10036000000000000000000000000000000000008D
:10037000000000000000000000000000000000007D
:10038000000000000000000000000000000000006D
:10039000000000000000000000000000000000005D
:1003A000000000000000000000000000000000004D
:1003B000000000000000000000000000000000003D
:1003C000000000000000000000000000000000002D
:1003D000000000000000000000000000000000001D
:1003E000000000000000000000000000000000000D
:1003F000000000000000000000000000787FE4F62C
:10040000D8FD90F0007F007E02E4F0A3DFFCDEFA6E
:1004100075815802045102054BE493A3F8E493A3B9
:100420004003F68001F208DFF48029E493A3F85436
:1004300007240CC8C333C4540F4420C8834004F4B9
:1004400056800146F6DFE4800B01020408102040CC
:1004500080900496E47E019360BCA3FF543F30E596
:1004600009541FFEE493A360010ECF54C025E06041
:10047000A840B8E493A3FAE493A3F8E493A3C8C50F
:1004800082C8CAC583CAF0A3C8C582C8CAC583CA00
:10049000DFE9DEE780BEC1036064F17100000000A7
:1004A000000000000000000000000000000000004C
:1004B000000000000000000000000000000000003C
:1004C000000000000000000000000000000000002C
:1004D000000000000000000000000000000000001C
:1004E000000000000000000000000000000000000C
:1004F00000000000000000000000000000000000FC
:1005000002080000000000000000000000000000E1
:1005100000000000000000000000000000000000DB
:10052000000000000075BF0175BA10E4F5BFB13FCF
:10053000120893E4F5B8F5B9F5F8F5F9D2AF2275DC
:100540009104E4F59075B1FFF5B022B12530030CAC
:10055000112040087BFF7A007918B1647F017E008A
:10056000D1EC80E9311C6010F5993099FDC2997485
:100570000129F9E43AFA80EC22120AA6AB07AA068E
:100580007EF07FC87D327C001209E57B017AF0792C
:10059000C8B1647BFF7A02792680C98B3F8A408983
:1005A0004111038E428F4378007CF07D017BFF7AFE
:1005B0000379347E007FC811F6E543640545427037
:1005C0001EAB3FAA40A941311CB424139000023154
:1005D00035B4240B9000043135B42403D38001C317
:1005E0009200E543642845427027AB3FAA40A941E9
:1005F000311C6424701B9000013135B466139000E7
:10060000023135B4240B9000273135B42403D38054
:1006100001C392017E007FC87D007B017AF07900E2
:1006200031E4300057AB3FAA40A941900001313579
:10063000249E601914602514603014602F14603AF1
:100640002405704B9000033135FF020998AB3FAA97
:1006500040A9419000033135FF020954AB3FAA4045
:10066000A9419000033135FF803F802BAB3FAA406A
:10067000A9419000033135FFE120A179300110AB91
:100680003FAA40A941F1487BFF7A03792D80067B80
:10069000FF7A03791BA16411207BFF50067A02794F
:1006A0009680047A02799EA1648F44E54464317097
:1006B000201120400EC2B6C2B7C2927BFF7A0279E7
:1006C0009E8027C292D2B6D2B77BFF7A0279A680EB
:1006D00019E544B4300EC2B7C2B6D2927BFF7A029B
:1006E00079AE80067BFF7A0279B6A164E4FDFCC393
:1006F000ED9FEE6480F8EC6480985023E4FBFA9060
:100700000000A3E582B430FAE583B475F50BBB00B5
:10071000010AEB64194A70E70DBD00010C80D0227C
:100720008F44E544B4310AD2037BFF7A0279CC804E
:1007300015E544B4300AC2037BFF7A0279D48006FF
:100740007BFF7A0279DCA1648B448A458946120AD0
:10075000A68E478F4878C87CF07D017BFF7A0279AE
:10076000F67E007F2511F6754C00754D00754E47DD
:100770007B017AF079C88B498A4A894B78ED7CF005
:100780007D017BFF7A0579057E007F2011F6854982
:100790004F854A50854B51E4F552F553FDFC7FFFE0
:1007A0007E03120A78AB4CAA4DA94E74A075F000D6
:1007B00031C57F027E00D1EC7E007F207D007B0171
:1007C0007AF079ED31E4AB4FAA50A951311CFF60AA
:1007D0004E74ED2553F58274F03552F583EFF0E554
:1007E000536419455270237EF07FEDAB4CAA4DA99E
:1007F0004E1208297E007F207D007B017AF079ED82
:100800001201E4E4F552F55380080553E5537002F4
:10081000055274012551F551E43550F55080A77EFD
:10082000F07FEDAB4CAA4DA94E8E548F558B568A56
:10083000578958E4FFFE855582855483E0FD74E0B6
:100840002FF8A6050555E555700205540FBF0001A8
:100850000EEF64204E70DFAB56AA57A95812016202
:10086000FFAEF0117B500DAB56AA57A958E475F0B6
:100870002012018D7F027E000206EC8E838F82782B
:100880001876E0C0D075D01812DFF69202D0D0A250
:1008900002B32275B2025380FB438604E4F5B243EF
:1008A000860443B301F5BD75987075EAD575BE81B0
:1008B00043E90143BD01D2AC22C0E0C0F0C083C017
:1008C00082C0D075D000C000C001C002C003C00407
:1008D000C005C006C00775BF80309902C299309824
:1008E0005585993EE53E640D6013E53E640A600D52
:1008F000C3E5099463E5086480948040207B017A15
:10090000F1797112059B7E007F647D007B017AF195
:1009100079711201E475080075090080177471255A
:1009200009F58274F13508F583E53EF00509E5091E
:1009300070020508C29875BFC0D007D006D005D098
:1009400004D003D002D001D000D0D0D082D083D048
:10095000F0D0E032C2B1C2B3C2B5EF24CF601214FE
:100960006019146020240370267BFF7A02792980A5
:1009700024D2B17BFF7A027931801AD2B37BFF7A1D
:100980000279398010D2B57BFF7A02794180067BEB
:10099000FF7A027949020564C2B0C2B2C2B4EF2440
:1009A000CF6012146019146020240370267BFF7A34
:1009B00002795F8024D2B07BFF7A027967801AD2F5
:1009C000B27BFF7A02796F8010D2B47BFF7A027912
:1009D0007780067BFF7A02797F02056412DFF3B32A
:1009E00022EF02DFF08E448F458C468D478A488B7C
:1009F00049754AA0754B00E4F54CF54DF54EF54FA1
:100A0000F550F551AE46AF47FDAA44A9457B01120A
:100A100001E47F0331E150FAC3E54B9549E54A957E
:100A2000485054C3E54F9547E5466480F8E54E6469
:100A300080985043E4F54CF54DE54B254DF582E5A6
:100A40004A354CF583E493FF6020E545254FF58258
:100A5000E544354EF583EFF0054DE54D7002054C4C
:100A6000054FE54F7002054E80CF7420254BF54BA6
:100A7000E4354AF54A80A1228E548F558C568D5705
:100A80007819A65418A655781CA65618A657781D8E
:100A9000E4F608F608F6C0D075D01812DFF9920215
:100AA000D0D0A202B3227F007EAC90A000D3E5821A
:100AB0009400E58394AC5017E4937006AE83AF8244
:100AC000800D74202582F582E43583F58380DE2253
:00000001FF
