:030000000202D128
:1002D10078FFE4F6D8FD90F0007F007E06E4F0A3FD
:0A02E100DFFCDEFA75813902032606
:1000030075BF0175BA10E4F5BF1204CE120507E4FB
:0B001300F5B8F5B9F5F8F5F9D2AF2209
:05001E0012000380FE4A
:0C04CE0075910175900175B1FFE4F5B067
:1004DA00E5A85480F50853A87F75B29053C9EF7503
:0604EA00B2D0E50842A8B3
:1004F000E5A85480F50853A87F75B29043C90875E4
:06050000B2D0E50842A89C
:0105060022D2
:10052D00556E6B6E6F776E20436F6D6D616E640DE2
:10053D000A000000000000000000000000000000A4
:06054D00000000000000A8
:10055300142600000000000000000000000000005E
:0A0563000000000000000224000068
:1005070075B2025380FB438604E4F5B24386044385
:10051700B301F5BD75987075EAD575BE8143E901DC
:0605270043BD01D2AC222D
:10056E0012011C6010F5993099FDC299740129F998
:05057E00E43AFA80EBF5
:010583002255
:060231008B0A8A0B890C08
:100237001205998E0D8F0E780F7C007D007BFF7A5B
:1002470005793F7E007F141200F67E007F147D0043
:100257007B007A00790F120162E50E6405450D7087
:100267005FAB0AAA0BA90C12011CB4240A90000464
:10027700120135642460028047AB0AAA0BA90C90CF
:100287000001120135249E601414602114602E248D
:1002970003702D900003120135FF020489AB0AAAEF
:1002A7000BA90C900003120135FF020444AB0AAA04
:1002B7000BA90C900003120135FF0203FE0205840F
:0902C7007BFF7A05792D12056E0A
:0102D000220B
:0300230002036B6A
:10036B00C0E0C0F0C083C082C0D075D000C000C058
:10037B0001C002C003C004C005C006C00775BF8022
:08038B00309902C29930984D2F
:10039300859909E509640D6013E509640A600DC3D5
:1003A300E5259412E5246480948040207B007A0044
:1003B30079261202317E007F147D007B007A00795A
:1003C30026120162752400752500800F74262525E9
:0D03D300F8A6090525E52570020524C2984D
:1003E00075BFC0D007D006D005D004D003D002D04E
:0E03F00001D000D0D0D082D083D0F0D0E03247
:10018E0023622330230D0A0023622331230D0A003C
:10019E0023622332230D0A0023622333230D0A0028
:1001AE00556E6B6E6F776E204C43204368616E6E9A
:1001BE00656C2E0D0A0023612330230D0A00236186
:1001CE002331230D0A0023612332230D0A002361FC
:1001DE002333230D0A00556E6B6E6F776E204C43E2
:1001EE0052204368616E6E656C2E0D0A0048565F94
:1001FE004F4B0D0A0048565F4E470D0A00236323EE
:10020E0031230D0A0023632330230D0A00556E6B34
:10021E006E6F776E20436861726765204D6F6465FF
:03022E000D0A00B6
:10044400C2B1C2B3C2B5EF24CF60121460191460F4
:1004540020240370267BFF7A01798E8024D2B17B1D
:10046400FF7A017996801AD2B37BFF7A01799E8054
:1004740010D2B57BFF7A0179A680067BFF7A0179D9
:05048400AE12056E221E
:10048900C2B0C2B2C2B4EF24CF60121460191460B2
:1004990020240370267BFF7A0179C48024D2B07BA3
:1004A900FF7A0179CC801AD2B27BFF7A0179D480A4
:1004B90010D2B47BFF7A0179DC80067BFF7A01795F
:0504C900E412056E22A3
:0305AE00A2CC22BA
:100584001205AE7BFF50067A0179FB80047A02796A
:050594000312056E22B8
:1003FE008F23E523643170211205AE400EC2B6C2C2
:10040E00B7C2CB7BFF7A0279038027C2CBD2B6D29A
:10041E00B77BFF7A02790B8019E523B4300EC2B791
:10042E00C2B6D2CB7BFF7A02791380067BFF7A02AB
:06043E00791B12056E227D
:1002EB0002001EE493A3F8E493A34003F68001F20B
:1002FB0008DFF48029E493A3F85407240CC8C33314
:10030B00C4540F4420C8834004F456800146F6DFE2
:10031B00E4800B0102040810204080900553E47E1A
:10032B00019360BCA3FF543F30E509541FFEE493D7
:10033B00A360010ECF54C025E060A840B8E493A39E
:10034B00FAE493A3F8E493A3C8C582C8CAC583CAC9
:10035B00F0A3C8C582C8CAC583CADFE9DEE780BE81
:01056D00008D
:10002600E709F608DFFA8046E709F208DFFA803EBC
:1000360088828C83E709F0A3DFFA8032E309F608A9
:10004600DFFA8078E309F208DFFA807088828C8311
:10005600E309F0A3DFFA806489828A83E0A3F608C5
:10006600DFFA805889828A83E0A3F208DFFA804C9F
:1000760080D280FA80C680D4806980F28033801076
:1000860080A680EA809A80A880DA80E280CA8033DF
:1000960089828A83ECFAE493A3C8C582C8CCC58357
:1000A600CCF0A3C8C582C8CCC583CCDFE9DEE78027
:1000B6000D89828A83E493A3F608DFF9ECFAA9F0A6
:1000C600EDFB2289828A83ECFAE0A3C8C582C8CCFC
:1000D600C583CCF0A3C8C582C8CCC583CCDFEADE15
:1000E600E880DB89828A83E493A3F208DFF980CC77
:1000F60088F0EF60010E4E60C388F0ED2402B40470
:100106000050B9F582EB2402B4040050AF23234516
:06011600822390007673C5
:10011C00BB010689828A83E0225002E722BBFE02E1
:09012C00E32289828A83E4932214
:10013500BB010CE58229F582E5833AF583E022507F
:1001450006E92582F8E622BBFE06E92582F8E222C9
:0D015500E58229F582E5833AF583E49322E3
:10059900E4FFFE12011C600C0FEF70010E09E970F7
:0505A900F20A80EF22C0
:10016200EF4E6012EF60010EEDBB010B89828A83B4
:10017200F0A3DFFCDEFA2289F05007F709DFFCA9C1
:0C018200F022BBFEFCF309DFFCA9F02218
:00000001FF
