:0300000002028D6C
:10028D0078FFE4F6D8FD90F0007F007E06E4F0A341
:0A029D00DFFCDEFA7581250202E2A3
:0806ED0048565F4E470D0A005C
:02064E00C100E9
:10066B0075BF0175BA10E4F5BF1206E3120628E454
:0B067B00F5B8F5B9F5F8F5F9D2AF229B
:10059C00E4FDFCC3ED9FEE6480F8EC64809850237E
:1005AC00E4FBFA900000A3E582B430FAE583B4755D
:1005BC00F50BBB00010AEB64194A70E70DBD000195
:0305CC000C80D0D0
:0105CF002209
:1000030012066B30000E1206A140097BFF7A0679B7
:0D001300ED1206B87F017E0012059C80E60C
:0A06E30075913F75B1F075B050221B
:1005D000556E6B6E6F776E20436F6D6D616E64311B
:1005E0000D0A004141416F727265637420436F6D63
:0E05F0006D616E6420466F726D61740D0A00BD
:10065000140A00000000000000000000000000007C
:0A0660000000000000000208000086
:1006280075B2025380FB438604E4F5B24386044363
:10063800B301F5BD75987075EAD575BE8143E901BA
:0606480043BD01D2AC220B
:1006B80012043B6010F5993099FDC299740129F92B
:0506C800E43AFA80EBAA
:0106CD00220A
:0601DC008B228A23892416
:1001E2001206CEEF64054E7021AB22AA23A9241277
:1001F200043BB42415900002120454B4240C900061
:1002020004120454B42403D38001C3920130017157
:10021200AB22AA23A924900001120454249E601A3E
:100222001460271460341460341460412405704053
:10023200900003120454FF020551AB22AA23A92401
:10024200900003120454FF020506AB22AA23A9243C
:10025200900003120454FF0204AD0203BAAB22AAB7
:1002620023A924900003120454FF0205FE0206860D
:100272007BFF7A0579D01206B8AB22AA23A9248083
:0A028200067BFF7A0579E31206B847
:01028C00224F
:03002300020327AE
:10032700C0E0C0F0C083C082C0D075D000C000C09C
:1003370001C002C003C004C005C006C00775BF8066
:08034700309902C29930984D73
:10034F00859921E521640D6013E521640A600DC3D1
:10035F00E5099413E5086480948040207B007A00BF
:10036F00790A1201DC7E007F147D007B007A007910
:10037F000A120481750800750900800F740A250997
:0D038F00F8A6210509E50970020508C298CD
:10039C0075BFC0D007D006D005D004D003D002D092
:0E03AC0001D000D0D0D082D083D0F0D0E0328B
:100026002366230062666366393432382D65656659
:10003600362D343236312D616532652D653964369B
:10004600366337653364333100230A002362233075
:10005600230A0023622331230A0023622332230A60
:100066000023622333230A0023556E6B6E6F776E6F
:10007600204C43204368616E6E656C2E230A002374
:10008600612330230A0023612331230A00236123DD
:1000960032230A0023612333230A0023556E6B6E35
:1000A6006F776E204C4352204368616E6E656C2EEE
:1000B600230A0048565F52454144595F313A204F62
:1000C6004B0A0048565F52454144595F313A204E2B
:1000D600470A0048565F52454144595F323A204F1D
:1000E6004B0A0048565F52454144595F323A204E0A
:1000F600470A0048565F52454144595F333A204FFC
:100106004B0A0048565F52454144595F333A204EE8
:10011600470A0048565F4641554C545F313A204FD6
:100126004B0A0048565F4641554C545F313A204EC3
:10013600470A0048565F4641554C545F323A204FB5
:100146004B0A0048565F4641554C545F323A204EA2
:10015600470A0048565F4641554C545F333A204F94
:100166004B0A0048565F4641554C545F333A204E81
:10017600470A0023642331230A0023642330230A19
:100186000023632330230A0023632331230A002339
:10019600632332230A0023556E6B6E6F776E2043FE
:1001A6006861726765204D6F6465230A00236523C5
:1001B60031230A0023652330230A0023556E6B6E14
:1001C6006F776E204856204D6F6E69746F722043AC
:0601D6006F6465230A00BE
:100686007BFF7A0079261206B87BFF7A00792A1258
:0B06960006B87BFF7A00794F0206B81F
:10050600C290C293C294C291C292C295EF24CF60A8
:1005160012146019146020240370267BFF7A007978
:10052600528024D2917BFF7A007959801AD2927B2D
:10053600FF7A0079608010D2957BFF7A0079678018
:0B054600067BFF7A00796E1206B822D7
:10055100C290C293C294C291C292C295EF24CF605D
:1005610012146019146020240370267BFF7A00792D
:10057100858024D2907BFF7A00798C801AD2937B7C
:10058100FF7A0079938010D2947BFF7A00799A8068
:0B059100067BFF7A0079A11206B82259
:1006A10030C81230CA0F30CC0C30C90930CB0630FB
:0706B100CD03D38001C32239
:1003BA007BFF30C8067A0079B980047A0079C912BD
:1003CA0006B87BFF30CA067A0079D980047A0079A8
:1003DA00E91206B87BFF30CC067A0079F980047AF4
:1003EA000179091206B87BFF30C9067A01791980AA
:1003FA00047A0179291206B87BFF30CB067A017993
:10040A003980047A0179491206B87BFF30CD067A21
:10041A0001795980047A0179691206B81206A17B1A
:10042A00FF50067A01797980047A0179801206B838
:01043A00229F
:1004AD008F25E525B4300EC2B7D2B6D2B47BFF7A14
:1004BD000179878040E525643170211206A1400E37
:1004CD00C2B7D2B4D2B67BFF7A0179808027D2B67B
:1004DD00D2B7C2B47BFF7A01798E8019E525B4328B
:1004ED000ED2B4C2B7C2B67BFF7A01799580067B76
:0904FD00FF7A01799C1206B82275
:1005FE008F25E525B4310AD2007BFF7A0179B380CD
:10060E0015E525B4300AC2007BFF7A0179BA80065F
:0A061E007BFF7A0179C11206B822B1
:1002A700020003E493A3F8E493A34003F68001F26A
:1002B70008DFF48029E493A3F85407240CC8C33358
:1002C700C4540F4420C8834004F456800146F6DF27
:1002D700E4800B010204081020408090064EE47E63
:1002E700019360BCA3FF543F30E509541FFEE4931C
:1002F700A360010ECF54C025E060A840B8E493A3E3
:10030700FAE493A3F8E493A3C8C582C8CAC583CA0D
:10031700F0A3C8C582C8CAC583CADFE9DEE780BEC5
:01066A00008F
:10043B00BB010689828A83E0225002E722BBFE02BF
:09044B00E32289828A83E49322F2
:10045400BB010CE58229F582E5833AF583E022505D
:1004640006E92582F8E622BBFE06E92582F8E222A7
:0D047400E58229F582E5833AF583E49322C1
:1006CE00E4FFFE12043B600C0FEF70010E09E9709F
:0506DE00F20A80EF228A
:10048100EF4E6012EF60010EEDBB010B89828A8392
:10049100F0A3DFFCDEFA2289F05007F709DFFCA99F
:0C04A100F022BBFEFCF309DFFCA9F022F6
:00000001FF
