:1000000002044AE4FFFE12011C600C0FEF70010EA7
:1000100009E970F20A80EF2248565F4E470D0A0048
:100023000209C3E709F608DFFA8046E709F208DFA9
:10003300FA803E88828C83E709F0A3DFFA8032E3FB
:1000430009F608DFFA8078E309F208DFFA8070889E
:10005300828C83E309F0A3DFFA806489828A83E0D8
:10006300A3F608DFFA805889828A83E0A3F208DFC7
:10007300FA804C80D280FA80C680D4806980F28076
:1000830033801080A680EA809A80A880DA80E2809C
:10009300CA803389828A83ECFAE493A3C8C582C8F1
:1000A300CCC583CCF0A3C8C582C8CCC583CCDFE95B
:1000B300DEE7800D89828A83E493A3F608DFF9ECF7
:1000C300FAA9F0EDFB2289828A83ECFAE0A3C8C582
:1000D30082C8CCC583CCF0A3C8C582C8CCC583CCA9
:1000E300DFEADEE880DB89828A83E493A3F208DF18
:1000F300F980CC88F0EF60010E4E60C388F0ED24E8
:1001030002B4040050B9F582EB2402B4040050AFEA
:10011300232345822390007673BB010689828A8359
:10012300E0225002E722BBFE02E32289828A83E4B3
:100133009322BB010CE58229F582E5833AF583E03E
:10014300225006E92582F8E622BBFE06E92582F85D
:10015300E222E58229F582E5833AF583E49322BB23
:10016300010A89828A83E0F5F0A3E022500687F032
:1001730009E71922BBFE07E3F5F009E31922898297
:100183008A83E493F5F074019322BB010789828A81
:1001930083020232500B09C5F027F7C5F01937F770
:1001A30022BBFE0D09F8E325F0F3C5F019E338F39C
:1001B30022F889828A8374019325F0C5F0F8E493C9
:1001C3003822BB010A89828A83F0E5F0A3F022502A
:1001D30006F709A7F01922BBFE06F3E5F009F319A8
:1001E30022EF4E6012EF60010EEDBB010B89828A94
:1001F30083F0A3DFFCDEFA2289F05007F709DFFC66
:10020300A9F022BBFEFCF309DFFCA9F022F8BB0135
:100213000DE58229F582E5833AF583E8F02250065D
:10022300E92582C8F622BBFE05E92582C8F222C56C
:10023300F0F8A3E028F0C5F0F8E582158270021506
:1002430083E038F02223662300230D0A0023622370
:1002530030230D0A0023622331230D0A0023622376
:1002630032230D0A0023622333230D0A00556E6BDC
:100273006E6F776E204C43204368616E6E656C2E03
:100283000D0A0023612330230D0A00236123312348
:100293000D0A0023612332230D0A00236123332334
:1002A3000D0A00556E6B6E6F776E204C43522043E0
:1002B30068616E6E656C2E0D0A0048565F4F4B0DDC
:1002C3000A0048565F4E470D0A0023632331230D6E
:1002D3000A0023632330230D0A00556E6B6E6F777C
:1002E3006E20436861726765204D6F64650D0A0077
:1002F30023652331230D0A0023652330230D0A00D0
:10030300556E6B6E6F776E204856204D6F6E697415
:100313006F7220436F64650D0A0053657474696ED0
:1003230067205555494420746F20002E2E2E2E0D24
:100333000A00506C6561736520776169742E2E2EF7
:1003430000444F4E450D0A0000000000000000006D
:10035300000000000000000000000000000000009A
:1003630000000000000000000000000000556E6B5C
:100373006E6F776E20436F6D6D616E640D0A0000C2
:10038300000000000000000000000000000000006A
:10039300000000000000000000000000000000005A
:1003A300000000000000000000000000000000004A
:1003B300000000000000000000000000000000003A
:1003C300000000000000000000000000000000002A
:1003D300000000000000000000000000000000001A
:1003E300000000000000000000000000000000000A
:1003F30000000000000000000000000000000000FA
:1004030000000000000000000000000000000000E9
:1004130000000000000000000000000000000000D9
:1004230000000000000000000000000000000000C9
:1004330000000000000000000000000000000000B9
:1004430000000000000000787FE4F6D8FD90F00083
:100453007F007E02E4F0A3DFFCDEFA75815802041C
:100463009F0205E6E493A3F8E493A34003F6800117
:10047300F208DFF48029E493A3F85407240CC8C3DB
:1004830033C4540F4420C8834004F456800146F615
:10049300DFE4800B01020408102040809004E4E4B0
:1004A3007E019360BCA3FF543F30E509541FFEE473
:1004B30093A360010ECF54C025E060A840B8E49335
:1004C300A3FAE493A3F8E493A3C8C582C8CAC58377
:1004D300CAF0A3C8C582C8CAC583CADFE9DEE780FC
:1004E300BEC1036064F17100000000000000000061
:1004F30000000000000000000000000000000000F9
:1005030000000000000000000000000000000000E8
:1005130000000000000000000000000000000000D8
:1005230000000000000000000000000000000000C8
:1005330000000000000000000000000000000000B8
:10054300000000000000000000000002080000009E
:100553008B498A4A894BE4F551F552E5501550AE63
:100563004F7002154F4E6033AB4CAA4DA94E12018A
:100573001CFFAB49AA4AA94B0552E552AC51700284
:10058300055114F5828C83EF120210EF60CD7401D4
:10059300254EF54EE4354DF54D80C0AB49AA4AA929
:1005A3004B220000000000000000000000000000DB
:1005B3000000000000000000000000000000000038
:1005C300000075BF0175BA10E4F5BFB1DF12099DD4
:1005D300E4F5B8F5B9F5F8F5F9D2AF2275913F75A1
:1005E300B1F022B1C530030CF1B240087BFF7A00B1
:1005F3007918D1087F017E0012081B80E8D1087B9F
:10060300017AF079C8311C6010F5993099FDC299CF
:10061300740129F9E43AFA80EC228B448A4589462D
:10062300F1F18E478F4878C87CF07D017BFF7A0318
:10063300794B7E007F2511F6E5462403F9E4354521
:1006430085444CF54D894E754F007550247B017AD6
:10065300F079C8B1537BFF7A03791DD1007BFF7A10
:1006630003792ED1087BFF7A037935D108754C00C5
:10067300754D00754E477B017AF079C81208A07B4F
:10068300FF7A037944C108F1F1AB07AA067EF07F34
:10069300C87D327C00120B3B7BFF7A027948D10084
:1006A3007BFF7A02794CC1088B3F8A408941110351
:1006B3008E428F4378007CF07D017BFF7A03798241
:1006C3007E007FC811F6E54364054542701EAB3FCB
:1006D300AA40A941311CB424139000023135B4243B
:1006E3000B9000043135B42403D38001C39200E599
:1006F30043642845427027AB3FAA40A941311C649B
:1007030024701B9000013135B4661390000231351B
:10071300B4240B9000273135B42403D38001C39252
:10072300017E007FC87D007B017AF0790031E430DF
:100733000058AB3FAA40A9419000013135249E6087
:100743001914602514603114603014603B24057063
:10075300449000033135FF020AA8AB3FAA40A941E8
:100763009000033135FF020A5EAB3FAA40A94190D6
:1007730000033135FF020AF28023AB3FAA40A941AF
:100783009000033135FF803EC18A300108AB3FAA98
:1007930040A941C11D7BFF7A037970C108F1B27B87
:1007A300FF50067A0279BD80047A0279C5C1083008
:1007B300C81230CA0F30CC0C30C90930CB0630CD4B
:1007C30003D38001C3228F44E544B4310AD2037BAF
:1007D300FF7A0279F38015E544B4300AC2037BFF44
:1007E3007A0279FB80067BFF7A037903C1087F00D5
:1007F3007EAC90A000D3E5829400E58394AC5017BF
:10080300E4937006AE83AF82800D74202582F58257
:10081300E43583F58380DE22E4FDFCC3ED9FEE64C3
:1008230080F8EC6480985023E4FBFA900000A3E581
:1008330082B430FAE583B475F50BBB00010AEB64AF
:10084300194A70E70DBD00010C80D0228E548F55DC
:100853008B568A578958E4FFFE855582855483E079
:10086300FD74E02FF8A6050555E555700205540FF4
:10087300BF00010EEF64204E70DFAB56AA57A95894
:10088300120162FFAEF03157500DAB56AA57A9586B
:10089300E475F02012018D7F027E00011B8B498AD3
:1008A3004A894B78ED7CF07D017BFF7A0579A57E43
:1008B300007F201200F685494F854A50854B51E44D
:1008C300F552F553FDFC7FFF7E03316FAB4CAA4D10
:1008D300A94E74A075F0001201C57F027E00111BA2
:1008E3007E007F207D007B017AF079ED1201E4AB7D
:1008F3004FAA50A95112011CFF604D74ED2553F509
:100903008274F03552F583EFF0E553641945527064
:10091300227EF07FEDAB4CAA4DA94E114F7E007F96
:10092300207D007B017AF079ED1201E4E4F552F5C4
:100933005380080553E5537002055274012551F5A0
:1009430051E43550F55080A77EF07FEDAB4CAA4DB6
:10095300A94E014F8E838F82781876E0C0D075D070
:100963001812DFF69202D0D0A202B3228E548F5512
:100973008C568D577819A65418A655781CA6561868
:10098300A657781DE4F608F608F6C0D075D01812FD
:10099300DFF99202D0D0A202B32275B2025380FBD8
:1009A300438604E4F5B243860443B301F5BD759869
:1009B3007075EAD575BE8143E90143BD01D2AC220E
:1009C300C0E0C0F0C083C082C0D075D000C000C0FA
:1009D30001C002C003C004C005C006C00775BF80C4
:1009E300309902C29930985585993EE53E640D6071
:1009F30013E53E640A600DC3E5099463E50864806A
:100A0300948040207B017AF179711206AB7E007FDE
:100A1300647D007B017AF179711201E47508007538
:100A23000900801774712509F58274F13508F5837F
:100A3300E53EF00509E50970020508C29875BFC0D7
:100A4300D007D006D005D004D003D002D001D00007
:100A5300D0D0D082D083D0F0D0E032C290C292C244
:100A630094C291C293C295EF24CF601214601914FB
:100A73006020240370267BFF7A0279508024D29170
:100A83007BFF7A027958801AD2937BFF7A027960CE
:100A93008010D2957BFF7A02796880067BFF7A0209
:100AA3007970020608C290C292C294C291C293C2E4
:100AB30095EF24CF6012146019146020240370266C
:100AC3007BFF7A0279868024D2907BFF7A02798E2B
:100AD300801AD2927BFF7A0279968010D2947BFFA0
:100AE3007A02799E80067BFF7A0279A60206088F36
:100AF30044E544643170211207B2400EC2B7C2B458
:100B0300C2CE7BFF7A0279C58027C2CED2B7D2B4D8
:100B13007BFF7A0279CD8019E544B4300EC2B4C2AA
:100B2300B7D2CE7BFF7A0279D580067BFF7A027932
:100B3300DD020608EF02DFF08E448F458C468D47B9
:100B43008A488B49754AA0754B00E4F54CF54DF581
:100B53004EF54FF550F551AE46AF47FDAA44A945B2
:100B63007B011201E47F03713750FAC3E54B9549CA
:100B7300E54A95485054C3E54F9547E5466480F8E8
:100B8300E54E6480985043E4F54CF54DE54B254D17
:100B9300F582E54A354CF583E493FF6020E545256E
:100BA3004FF582E544354EF583EFF0054DE54D7085
:100BB30002054C054FE54F7002054E80CF7420258A
:0B0BC3004BF54BE4354AF54A80A122B7
:00000001FF
