:100000000202F5C100140A00000000000000000018
:1000100000000000000000000000000208000000D6
:10002000A2C822E1F4E709F608DFFA8046E709F200
:1000300008DFFA803E88828C83E709F0A3DFFA802C
:1000400032E309F608DFFA8078E309F208DFFA8084
:100050007088828C83E309F0A3DFFA806489828A46
:1000600083E0A3F608DFFA805889828A83E0A3F24E
:1000700008DFFA804C80D280FA80C680D480698004
:10008000F28033801080A680EA809A80A880DA808F
:10009000E280CA803389828A83ECFAE493A3C8C5DC
:1000A00082C8CCC583CCF0A3C8C582C8CCC583CCDC
:1000B000DFE9DEE7800D89828A83E493A3F608DF17
:1000C000F9ECFAA9F0EDFB2289828A83ECFAE0A32D
:1000D000C8C582C8CCC583CCF0A3C8C582C8CCC56E
:1000E00083CCDFEADEE880DB89828A83E493A3F2B3
:1000F00008DFF980CC88F0EF60010E4E60C388F015
:10010000ED2402B4040050B9F582EB2402B40400DB
:1001100050AF232345822390007573BB010689826B
:100120008A83E0225002E722BBFE02E32289828A10
:1001300083E49322BB010CE58229F582E5833AF53D
:1001400083E0225006E92582F8E622BBFE06E92577
:1001500082F8E222E58229F582E5833AF583E49389
:1001600022BB010A89828A83E0F5F0A3E0225006CF
:1001700087F009E71922BBFE07E3F5F009E319222E
:1001800089828A83E493F5F074019322BB01078985
:10019000828A8302020F500B09C5F027F7C5F019B8
:1001A00037F722BBFE0D09F8E325F0F3C5F019E39C
:1001B00038F322F889828A8374019325F0C5F0F818
:1001C000E4933822BB010A89828A83F0E5F0A3F028
:1001D000225006F709A7F01922BBFE06F3E5F00945
:1001E000F31922EF4E6012EF60010EEDBB010B8997
:1001F000828A83F0A3DFFCDEFA2289F05007F70938
:10020000DFFCA9F022BBFEFCF309DFFCA9F022C54C
:10021000F0F8A3E028F0C5F0F8E582158270021529
:1002200083E038F0220D0A0023622330230D0A00F8
:1002300023622331230D0A0023622332230D0A0097
:1002400023622333230D0A00556E6B6E6F776E2089
:100250004C43204368616E6E656C2E0D0A0023616D
:100260002330230D0A0023612331230D0A0023616B
:100270002332230D0A0023612333230D0A00556E18
:100280006B6E6F776E204C4352204368616E6E65D3
:100290006C2E0D0A0048565F4F4B0D0A0048565F02
:1002A0004E470D0A0023632331230D0A00236323E5
:1002B00030230D0A00556E6B6E6F776E20436861B8
:1002C000726765204D6F64650D0A00236523312335
:1002D0000D0A0023652330230D0A00556E6B6E6FE7
:1002E000776E204856204D6F6E69746F7220436F91
:1002F00064650D0A00787FE4F6D8FD90F0007F0079
:100300007E02E4F0A3DFFCDEFA75816902034A0293
:100310000443E493A3F8E493A34003F68001F208B6
:10032000DFF48029E493A3F85407240CC8C333C432
:10033000540F4420C8834004F456800146F6DFE49D
:10034000800B0102040810204080900003E47E012D
:100350009360BCA3FF543F30E509541FFEE493A310
:1003600060010ECF54C025E060A840B8E493A3FA22
:10037000E493A3F8E493A3C8C582C8CAC583CAF0AE
:10038000A3C8C582C8CAC583CADFE9DEE780BE55F7
:100390006E6B6E6F776E20436F6D6D616E640D0ACC
:1003A0000051514665383430302D653239622D3474
:1003B0003164342D613731362D34343636353534A9
:1003C000344142434400444F4E450D0A00000000B2
:1003D000000000000000000000000000000000001D
:1003E00000E4FFFE12011B600C0FEF70010E09E923
:1003F00070F20A80EF2248565F4E470D0A00000057
:1004000000000000000000000000000000000000EC
:10041000000000000000000000000000000075BFA8
:100420000175BA10E4F5BF9137F133E4F5B8F5B9C9
:10043000F5F8F5F9D2AF22759104E4F59075B1FFA6
:10044000F5B022911E30000C112040087BFF7A038A
:1004500079F6915C7F017E00F15980E9311B6010D3
:10046000F5993099FDC299740129F9E43AFA80ECC2
:1004700022B1C5AB07AA067EF07F647D327C00D135
:100480009D7B017AF07964915C7BFF7A027925800B
:10049000CB8B3F8A40894171E18E428F43B1C58E3B
:1004A000448F4578467C007D007BFF7A0379CD7EC2
:1004B000007F1411F57E007F147D007B007A0079A7
:1004C0004631E3E543640545426002A168AB3FAABB
:1004D00040A941311BB424099000043134642460E4
:1004E00002A168AB3FAA40A9419000013134249F8A
:1004F000B40700507390050375F003A4C58325F07D
:10050000C5837302051802052002052E02053C0270
:10051000053E02054C02054E9000033134FFC15ADE
:10052000AB3FAA40A9419000033134FFC117AB3F54
:10053000AA40A9419000033134FF80468032AB3F8E
:10054000AA40A9419000033134FFA1EF8171755D8C
:1005500000755E00755F447BFF7A0379A11208BACB
:100560007BFF7A0379C680067BFF7A03798F815CF3
:1005700011207BFF50067A02799580047A02799DDA
:10058000815C8F5AE55A643170201120400EC2B64A
:10059000C2B7C2927BFF7A02799D8027C292D2B6FF
:1005A000D2B77BFF7A0279A58019E55AB4300EC222
:1005B000B7C2B6D2927BFF7A0279AD80067BFF7A12
:1005C0000279B5815C7F007EAC90A000D3E5829477
:1005D00000E58394AC5017E4937006AE83AF82803D
:1005E0000D74202582F582E43583F58380DE228F29
:1005F0005AE55AB4310AD2007BFF7A0279CB8015D2
:10060000E55AB4300AC2007BFF7A0279D380067BB8
:10061000FF7A0279DB815CC2B1C2B3C2B5EF24CFED
:100620006012146019146020240370267BFF7A0284
:1006300079288024D2B17BFF7A027930801AD2B334
:100640007BFF7A0279388010D2B57BFF7A0279403D
:1006500080067BFF7A027948815CC2B0C2B2C2B424
:10066000EF24CF6012146019146020240370267BDD
:10067000FF7A02795E8024D2B07BFF7A02796680AD
:100680001AD2B27BFF7A02796E8010D2B47BFF7AE5
:1006900002797680067BFF7A02797E815C8E5A8FA2
:1006A0005B8C5C8D5D8A5E8B5F7560A0756100E41C
:1006B000F562F563F564F565F566F567AE5CAF5D0B
:1006C000FDAA5AA95B7B0131E37F03F12F50FAC3E6
:1006D000E561955FE560955E5054C3E565955DE520
:1006E0005C6480F8E5646480985043E4F562F563E7
:1006F000E5612563F582E5603562F583E493FF608B
:1007000020E55B2565F582E55A3564F583EFF00554
:1007100063E563700205620565E565700205648046
:10072000CF74202561F561E43560F56080A122EF8A
:1007300002DFF075B2025380FB438604E4F5B24356
:10074000860443B301F5BD75987075EAD575BE8111
:1007500043E90143BD01D2AC22E4FDFCC3ED9FEEB1
:100760006480F8EC6480985023E4FBFA900000A3C6
:10077000E582B430FAE583B475F50BBB00010AEBF2
:1007800064194A70E70DBD00010C80D0228E658F80
:10079000668B678A688969E4FFFE85668285658362
:1007A000E0FD74E02FF8A6050566E56670020565B4
:1007B0000FBF00010EEF64204E70DFAB67AA68A97F
:1007C000693161FFAEF0F1DC500CAB67AA68A96932
:1007D000E475F020318C7F027E00E1598E838F8298
:1007E000781876E0C0D075D01812DFF69201D0D01C
:1007F000A201B322C0E0C0F0C083C082C0D075D0D7
:1008000000C000C001C002C003C004C005C006C0D3
:100810000775BF80309902C29930984D85993EE5A1
:100820003E640D6013E53E640A600DC3E509941251
:10083000E5086480948040207B007A00790A1204E5
:10084000917E007F147D007B007A00790A1201E31B
:10085000750800750900800F740A2509F8A63E0581
:1008600009E50970020508C29875BFC0D007D00617
:10087000D005D004D003D002D001D000D0D0D08297
:10088000D083D0F0D0E03212DFF3B3228E658F66D2
:100890008C678D687819A66518A666781CA66718F7
:1008A000A668781DE4F608F608F6C0D075D01812D0
:1008B000DFF99201D0D0A201B3228B5A8A5B895C06
:1008C00078647CF07D017BFF7A0379FE7E007F20D7
:1008D0001200F5855A60855B61855C62E4F563F51D
:1008E00064FDFC7FFF7E03118CAB5DAA5EA95F7483
:1008F000A075F0001201C47F027E001207597E002D
:100900007F207D007B017AF079641201E3AB60AA5D
:1009100061A96212011BFF604E74642564F5827444
:10092000F03563F583EFF0E5646419456370237E69
:10093000F07F64AB5DAA5EA95F12078D7E007F2009
:100940007D007B017AF079641201E3E4F563F564DC
:1009500080080564E5647002056374012562F56230
:10096000E43561F56180A67EF07F64AB5DAA5EA987
:040970005F02078D8E
:00000001FF
