:030000000202D128
:1002D10078FFE4F6D8FD90F0007F007E06E4F0A3FD
:0A02E100DFFCDEFA75813802032607
:1000030075BF0175BA10E4F5BF1205751204CEE48D
:0B001300F5B8F5B9F5F8F5F9D2AF2209
:05001E0012000380FE4A
:0C057500759104E4F59075B1FFF5B0221B
:1004F400556E6B6E6F776E20436F6D6D616E640D1C
:100504000A000000000000000000000000000000DD
:06051400000000000000E1
:10051A001425000000000000000000000000000098
:0A052A0000000000000002230000A2
:1004CE0075B2025380FB438604E4F5B243860443BF
:1004DE00B301F5BD75987075EAD575BE8143E90116
:0604EE0043BD01D2AC2267
:1005350012011C6010F5993099FDC299740129F9D1
:05054500E43AFA80EB2E
:01054A00228E
:060231008B098A0A890B0B
:100237001205608E0C8F0D780E7C007D007BFF7A97
:100247000579067E007F141200F67E007F147D007C
:100257007B007A00790E120162E50D6405450C708A
:100267005FAB09AA0AA90B12011CB4240A90000467
:10027700120135642460028047AB09AA0AA90B90D2
:100287000001120135249E601414602114602E248D
:1002970003702D900003120135FF020489AB09AAF0
:1002A7000AA90B900003120135FF020444AB09AA07
:1002B7000AA90B900003120135FF0203FE02054B4A
:0902C7007BFF7A0479F41205357D
:0102D000220B
:0300230002036B6A
:10036B00C0E0C0F0C083C082C0D075D000C000C058
:10037B0001C002C003C004C005C006C00775BF8022
:08038B00309902C29930984D2F
:10039300859908E508640D6013E508640A600DC3D8
:1003A300E5249412E5236480948040207B007A0046
:1003B30079251202317E007F147D007B007A00795B
:1003C30025120162752300752400800F74252524EE
:0D03D300F8A6080524E52470020523C29851
:1003E00075BFC0D007D006D005D004D003D002D04E
:0E03F00001D000D0D0D082D083D0F0D0E03247
:10018E0023622330230D0A0023622331230D0A003C
:10019E0023622332230D0A0023622333230D0A0028
:1001AE00556E6B6E6F776E204C43204368616E6E9A
:1001BE00656C2E0D0A0023612330230D0A00236186
:1001CE002331230D0A0023612332230D0A002361FC
:1001DE002333230D0A00556E6B6E6F776E204C43E2
:1001EE0052204368616E6E656C2E0D0A0048565F94
:1001FE004F4B0D0A0048565F4E470D0A00236323EE
:10020E0031230D0A0023632330230D0A00556E6B34
:10021E006E6F776E20436861726765204D6F6465FF
:03022E000D0A00B6
:10044400C2B1C2B3C2B5EF24CF60121460191460F4
:1004540020240370267BFF7A01798E8024D2B17B1D
:10046400FF7A017996801AD2B37BFF7A01799E8054
:1004740010D2B57BFF7A0179A680067BFF7A0179D9
:05048400AE1205352257
:10048900C2B0C2B2C2B4EF24CF60121460191460B2
:1004990020240370267BFF7A0179C48024D2B07BA3
:1004A900FF7A0179CC801AD2B27BFF7A0179D480A4
:1004B90010D2B47BFF7A0179DC80067BFF7A01795F
:0504C900E412053522DC
:03058100A2C822EB
:10054B001205817BFF50067A0179FB80047A0279D0
:05055B0003120535222A
:1003FE008F22E52264317021120581400EC2B6C2F1
:10040E00B7C2927BFF7A0279038027C292D2B6D20C
:10041E00B77BFF7A02790B8019E522B4300EC2B792
:10042E00C2B6D2927BFF7A02791380067BFF7A02E4
:06043E00791B12053522B6
:1002EB0002001EE493A3F8E493A34003F68001F20B
:1002FB0008DFF48029E493A3F85407240CC8C33314
:10030B00C4540F4420C8834004F456800146F6DFE2
:10031B00E4800B010204081020408090051AE47E53
:10032B00019360BCA3FF543F30E509541FFEE493D7
:10033B00A360010ECF54C025E060A840B8E493A39E
:10034B00FAE493A3F8E493A3C8C582C8CAC583CAC9
:10035B00F0A3C8C582C8CAC583CADFE9DEE780BE81
:0105340000C6
:10002600E709F608DFFA8046E709F208DFFA803EBC
:1000360088828C83E709F0A3DFFA8032E309F608A9
:10004600DFFA8078E309F208DFFA807088828C8311
:10005600E309F0A3DFFA806489828A83E0A3F608C5
:10006600DFFA805889828A83E0A3F208DFFA804C9F
:1000760080D280FA80C680D4806980F28033801076
:1000860080A680EA809A80A880DA80E280CA8033DF
:1000960089828A83ECFAE493A3C8C582C8CCC58357
:1000A600CCF0A3C8C582C8CCC583CCDFE9DEE78027
:1000B6000D89828A83E493A3F608DFF9ECFAA9F0A6
:1000C600EDFB2289828A83ECFAE0A3C8C582C8CCFC
:1000D600C583CCF0A3C8C582C8CCC583CCDFEADE15
:1000E600E880DB89828A83E493A3F208DFF980CC77
:1000F60088F0EF60010E4E60C388F0ED2402B40470
:100106000050B9F582EB2402B4040050AF23234516
:06011600822390007673C5
:10011C00BB010689828A83E0225002E722BBFE02E1
:09012C00E32289828A83E4932214
:10013500BB010CE58229F582E5833AF583E022507F
:1001450006E92582F8E622BBFE06E92582F8E222C9
:0D015500E58229F582E5833AF583E49322E3
:10056000E4FFFE12011C600C0FEF70010E09E97030
:05057000F20A80EF22F9
:10016200EF4E6012EF60010EEDBB010B89828A83B4
:10017200F0A3DFFCDEFA2289F05007F709DFFCA9C1
:0C018200F022BBFEFCF309DFFCA9F02218
:00000001FF
