:1000000002031BC100140A000000000000000000F1
:1000100000000000000000000000000208000000D6
:10002000A2C822020817E709F608DFFA8046E709A6
:10003000F208DFFA803E88828C83E709F0A3DFFABA
:100040008032E309F608DFFA8078E309F208DFFA84
:10005000807088828C83E309F0A3DFFA8064898250
:100060008A83E0A3F608DFFA805889828A83E0A3B6
:10007000F208DFFA804C80D280FA80C680D4806992
:1000800080F28033801080A680EA809A80A880DA8F
:1000900080E280CA803389828A83ECFAE493A3C821
:1000A000C582C8CCC583CCF0A3C8C582C8CCC583E3
:1000B000CCDFE9DEE7800D89828A83E493A3F6082A
:1000C000DFF9ECFAA9F0EDFB2289828A83ECFAE0F1
:1000D000A3C8C582C8CCC583CCF0A3C8C582C8CC90
:1000E000C583CCDFEADEE880DB89828A83E493A3E0
:1000F000F208DFF980CC88F0EF60010E4E60C38813
:10010000F0ED2402B4040050B9F582EB2402B404EB
:100110000050AF232345822390007673BB010689EC
:10012000828A83E0225002E722BBFE02E322898218
:100130008A83E49322BB010CE58229F582E5833AA8
:10014000F583E0225006E92582F8E622BBFE06E9A7
:100150002582F8E222E58229F582E5833AF583E4F7
:100160009322BB010A89828A83E0F5F0A3E0225042
:100170000687F009E71922BBFE07E3F5F009E3194A
:100180002289828A83E493F5F074019322BB0107EC
:1001900089828A83020210500B09C5F027F7C5F047
:1001A0001937F722BBFE0D09F8E325F0F3C5F01966
:1001B000E338F322F889828A8374019325F0C5F02D
:1001C000F8E4933822BB010A89828A83F0E5F0A320
:1001D000F0225006F709A7F01922BBFE06F3E5F05E
:1001E00009F31922EF4E6012EF60010EEDBB010B17
:1001F00089828A83F0A3DFFCDEFA2289F05007F7B8
:1002000009DFFCA9F022BBFEFCF309DFFCA9F02208
:10021000C5F0F8A3E028F0C5F0F8E5821582700279
:100220001583E038F0220D0A0023622330230D0AE3
:100230000023622331230D0A0023622332230D0A97
:100240000023622333230D0A00556E6B6E6F776EA9
:10025000204C43204368616E6E656C2E0D0A0023AE
:10026000612330230D0A0023612331230D0A00236B
:10027000612332230D0A0023612333230D0A005525
:100280006E6B6E6F776E204C4352204368616E6ECA
:10029000656C2E0D0A0048565F4F4B0D0A004856FC
:1002A0005F4E470D0A0023632331230D0A002363A9
:1002B0002330230D0A00556E6B6E6F776E204368F6
:1002C00061726765204D6F64650D0A0023652331F7
:1002D000230D0A0023652330230D0A00556E6B6E33
:1002E0006F776E204856204D6F6E69746F72204391
:1002F0006F64650D0A0051514641424330302D4D27
:100300004E4F502D343164342D613731362D343415
:100310003636353534344142434400787FE4F6D8EC
:10032000FD90F0007F007E02E4F0A3DFFCDEFA75B2
:10033000816C020370020444E493A3F8E493A340A5
:1003400003F68001F208DFF48029E493A3F8540750
:10035000240CC8C333C4540F4420C8834004F4564B
:10036000800146F6DFE4800B010204081020408083
:10037000900003E47E019360BCA3FF543F30E50985
:10038000541FFEE493A360010ECF54C025E060A883
:1003900040B8E493A3FAE493A3F8E493A3C8C58216
:1003A000C8CAC583CAF0A3C8C582C8CAC583CADF84
:1003B000E9DEE780BE556E6B6E6F776E20436F6D22
:1003C0006D616E640D0A00444F4E450D0A00000039
:1003D000000000000000000000000000000000001D
:1003E0000000E4FFFE12011C600C0FEF70010E090B
:1003F000E970F20A80EF2248565F4E470D0A00006E
:1004000000000000000000000000000000000000EC
:100410000000000000000000000000000000007567
:10042000BF0175BA10E4F5BF9138F1F1E4F5B8F504
:10043000B9F5F8F5F9D2AF22759104E4F59075B1EC
:10044000FFF5B022911F30000C112040087BFF7A8D
:100450000379F7915D7F017E00B1B780E9311C60BF
:1004600010F5993099FDC299740129F9E43AFA809E
:10047000EC22F141AB07AA067EF07F647D327C005E
:100480001208B37B017AF07964915D7BFF7A02797F
:100490002680CA8B3F8A40894171E28E428F437821
:1004A000447C007D007BFF7A0379CE7E007F1411AF
:1004B000F67E007F147D007B007A00794431E4E50C
:1004C00043640545426002A15AAB3FAA40A94131AD
:1004D0001CB42409900004313564246002807BAB95
:1004E0003FAA40A9419000013135249FB407005034
:1004F000699004FF75F003A4C58325F0C5837302DA
:10050000051402051C02052A02053802053A0205F7
:100510004802054A9000033135FFE1AEAB3FAA40E7
:10052000A9419000033135FFE16BAB3FAA40A941DF
:100530009000033135FF803C8028AB3FAA40A941A1
:100540009000033135FFA1EB8172AB3FAA40A94176
:10055000D1137BFF7A0379C780067BFF7A0379B5D5
:10056000815D11207BFF50067A02799680047A0221
:10057000799E815D8F58E558643170201120400EBE
:10058000C2B6C2B7C2927BFF7A02799E8027C2921E
:10059000D2B6D2B77BFF7A0279A68019E558B4307B
:1005A0000EC2B7C2B6D2927BFF7A0279AE80067BCA
:1005B000FF7A0279B6815DE4FDFCC3ED9FEE6480B5
:1005C000F8EC6480985023E4FBFA900000A3E582E5
:1005D000B430FAE583B475F50BBB00010AEB64197E
:1005E0004A70E70DBD00010C80D0228F58E558B449
:1005F000310AD2007BFF7A0279CC8015E558B430FD
:100600000AC2007BFF7A0279D480067BFF7A0279E6
:10061000DC815D8B588A59895AF1418E5B8F5C78F9
:10062000647CF07D017BFF7A0279F67E007F2511E4
:10063000F675600075610075625B7B017AF0796424
:100640008B5D8A5E895F78897CF07D017BFF7A0310
:1006500079FF7E007F2011F6855D63855E64855F8E
:1006600065E4F566F567FDFC7FFF7E0312095EAB6E
:1006700060AA61A96274A075F00031C57F027E0096
:10068000B1B77E007F207D007B017AF0798931E46B
:10069000AB63AA64A965311CFF604C74892567F5BA
:1006A0008274F03566F583EFF0E56764194566708E
:1006B000217EF07F89AB60AA61A962D1F17E007FC3
:1006C000207D007B017AF0798931E4E4F566F567F5
:1006D00080080567E5677002056674012565F565A4
:1006E000E43564F56480A97EF07F89AB60AA61A9D6
:1006F000628E688F698B6A8A6B896CE4FFFE8569FC
:1007000082856883E0FD74E02FF8A6050569E56938
:10071000700205680FBF00010EEF64204E70DFAB62
:100720006AAA6BA96C3162FFAEF0120946500CAB9D
:100730006AAA6BA96CE475F020318D7F027E00A15E
:10074000B77F007EAC90A000D3E5829400E583944F
:10075000AC5017E4937006AE83AF82800D742025F1
:1007600082F582E43583F58380DE22C2B1C2B3C252
:10077000B5EF24CF60121460191460202403702692
:100780007BFF7A0279298024D2B17BFF7A0279310A
:10079000801AD2B37BFF7A0279398010D2B57BFF01
:1007A0007A02794180067BFF7A027949815DC2B085
:1007B000C2B2C2B4EF24CF601214601914602024B6
:1007C0000370267BFF7A02795F8024D2B07BFF7AA8
:1007D000027967801AD2B27BFF7A02796F8010D2D9
:1007E000B47BFF7A02797780067BFF7A02797F817A
:1007F0005D75B2025380FB438604E4F5B243860480
:1008000043B301F5BD75987075EAD575BE8143E9AE
:100810000143BD01D2AC22C0E0C0F0C083C082C0A1
:10082000D075D000C000C001C002C003C004C00524
:10083000C006C00775BF80309902C29930984D85B7
:10084000993EE53E640D6013E53E640A600DC3E524
:10085000099412E5086480948040207B007A007936
:100860000A1204937E007F147D007B007A00790ACF
:100870001201E4750800750900800F740A2509F853
:10088000A63E0509E50970020508C29875BFC0D0EB
:1008900007D006D005D004D003D002D001D000D0BC
:1008A000D0D082D083D0F0D0E03212DFF3B322EF89
:1008B00002DFF08E588F598C5A8D5B8A5C8B5D7588
:1008C0005EA0755F00E4F560F561F562F563F564BF
:1008D000F565AE5AAF5BFDAA58A9597B011201E438
:1008E0007F0311AF50FAC3E55F955DE55E955C50FF
:1008F00054C3E563955BE55A6480F8E562648098CB
:100900005043E4F560F561E55F2561F582E55E350C
:1009100060F583E493FF6020E5592563F582E5588F
:100920003562F583EFF00561E561700205600563EE
:10093000E5637002056280CF7420255FF55FE435C2
:100940005EF55E80A1228E838F82781876E0C0D01B
:1009500075D01812DFF69201D0D0A201B3228E68B2
:100960008F698C6A8D6B7819A66818A669781CA6A1
:100970006A18A66B781DE4F608F608F6C0D075D0A4
:0C0980001812DFF99201D0D0A201B322BE
:00000001FF
