:10000000020504E4FFFE12011C600C0FEF70010EEC
:1000100009E970F20A80EF2248565F4E470D0A0048
:10002300020BE0E709F608DFFA8046E709F208DF8A
:10003300FA803E88828C83E709F0A3DFFA8032E3FB
:1000430009F608DFFA8078E309F208DFFA8070889E
:10005300828C83E309F0A3DFFA806489828A83E0D8
:10006300A3F608DFFA805889828A83E0A3F208DFC7
:10007300FA804C80D280FA80C680D4806980F28076
:1000830033801080A680EA809A80A880DA80E2809C
:10009300CA803389828A83ECFAE493A3C8C582C8F1
:1000A300CCC583CCF0A3C8C582C8CCC583CCDFE95B
:1000B300DEE7800D89828A83E493A3F608DFF9ECF7
:1000C300FAA9F0EDFB2289828A83ECFAE0A3C8C582
:1000D30082C8CCC583CCF0A3C8C582C8CCC583CCA9
:1000E300DFEADEE880DB89828A83E493A3F208DF18
:1000F300F980CC88F0EF60010E4E60C388F0ED24E8
:1001030002B4040050B9F582EB2402B4040050AFEA
:10011300232345822390007673BB010689828A8359
:10012300E0225002E722BBFE02E32289828A83E4B3
:100133009322BB010CE58229F582E5833AF583E03E
:10014300225006E92582F8E622BBFE06E92582F85D
:10015300E222E58229F582E5833AF583E49322BB23
:10016300010A89828A83E0F5F0A3E022500687F032
:1001730009E71922BBFE07E3F5F009E31922898297
:100183008A83E493F5F074019322BB010789828A81
:1001930083020232500B09C5F027F7C5F01937F770
:1001A30022BBFE0D09F8E325F0F3C5F019E338F39C
:1001B30022F889828A8374019325F0C5F0F8E493C9
:1001C3003822BB010A89828A83F0E5F0A3F022502A
:1001D30006F709A7F01922BBFE06F3E5F009F319A8
:1001E30022EF4E6012EF60010EEDBB010B89828A94
:1001F30083F0A3DFFCDEFA2289F05007F709DFFC66
:10020300A9F022BBFEFCF309DFFCA9F022F8BB0135
:100213000DE58229F582E5833AF583E8F02250065D
:10022300E92582C8F622BBFE05E92582C8F222C56C
:10023300F0F8A3E028F0C5F0F8E582158270021506
:1002430083E038F02223662300230A00236223304D
:10025300230A0023622331230A0023622332230A61
:100263000023622333230A0023556E6B6E6F776E70
:10027300204C43204368616E6E656C2E230A002375
:10028300612330230A0023612331230A00236123DE
:1002930032230A0023612333230A0023556E6B6E36
:1002A3006F776E204C4352204368616E6E656C2EEF
:1002B300230A0048565F52454144595F313A204F63
:1002C3004B0A0048565F52454144595F313A204E2C
:1002D300470A0048565F52454144595F323A204F1E
:1002E3004B0A0048565F52454144595F323A204E0B
:1002F300470A0048565F52454144595F333A204FFD
:100303004B0A0048565F52454144595F333A204EE9
:10031300470A0048565F4641554C545F313A204FD7
:100323004B0A0048565F4641554C545F313A204EC4
:10033300470A0048565F4641554C545F323A204FB6
:100343004B0A0048565F4641554C545F323A204EA3
:10035300470A0048565F4641554C545F333A204F95
:100363004B0A0048565F4641554C545F333A204E82
:10037300470A0023642331230A0023642330230A1A
:100383000023632330230A0023632331230A00233A
:10039300632332230A0023556E6B6E6F776E2043FF
:1003A3006861726765204D6F6465230A00236523C6
:1003B30031230A0023652330230A0023556E6B6E15
:1003C3006F776E204856204D6F6E69746F722043AD
:1003D3006F6465230A0053657474696E672055550D
:1003E300494420746F20002E2E2E2E0A00506C6577
:1003F30061736520776169742E2E2E00444F4E453C
:100403000A000000000000000000000000000000DF
:1004130000000000000000000000000000000000D9
:1004230000000000000000556E6B6E6F776E204376
:100433006F6D6D616E640D0A000000000000000026
:1004430000000000000000000000000000000000A9
:100453000000000000000000000000000000000099
:100463000000000000000000000000000000000089
:100473000000000000000000000000000000000079
:100483000000000000000000000000000000000069
:100493000000000000000000000000000000000059
:1004A3000000000000000000000000000000000049
:1004B3000000000000000000000000000000000039
:1004C3000000000000000000000000000000000029
:1004D3000000000000000000000000000000000019
:1004E3000000000000000000000000000000000009
:1004F30000000000000000000000000000000000F9
:1005030000787FE4F6D8FD90F0007F007E02E4F0EF
:10051300A3DFFCDEFA7581580205590206A0E493B5
:10052300A3F8E493A34003F68001F208DFF48029E3
:10053300E493A3F85407240CC8C333C4540F4420D2
:10054300C8834004F456800146F6DFE4800B0102C1
:1005530004081020408090059EE47E019360BCA3B4
:10056300FF543F30E509541FFEE493A360010ECF0F
:1005730054C025E060A840B8E493A3FAE493A3F839
:10058300E493A3C8C582C8CAC583CAF0A3C8C582F9
:10059300C8CAC583CADFE9DEE780BEC1036064F170
:1005A30071000000000000000000000000000000D7
:1005B3000000000000000000000000000000000038
:1005C3000000000000000000000000000000000028
:1005D3000000000000000000000000000000000018
:1005E3000000000000000000000000000000000008
:1005F30000000000000000000000000000000000F8
:10060300000000000002080000008B498A4A894B61
:10061300E4F551F552E5501550AE4F7002154F4EAB
:100623006033AB4CAA4DA94E12011CFFAB49AA4A39
:10063300A94B0552E552AC517002055114F5828C59
:1006430083EF120210EF60CD7401254EF54EE435B1
:100653004DF54D80C0AB49AA4AA94B2200000000CA
:100663000000000000000000000000000000000087
:1006730000000000000000000000000075BF0175CD
:10068300BA10E4F5BFD1991209A0E4F5B8F5B9F5AC
:10069300F8F5F9D2AF2275913F75B1F022D17F30D1
:1006A300030CF1DD40087BFF7A007918D1C27F018A
:1006B3007E0012081E80E8D1C27B017AF079C8312E
:1006C3001C6010F5993099FDC299740129F9E43A37
:1006D300FA80EC227BFF30C8067A0279B680047A6E
:1006E3000279C6D1C27BFF30CA067A0279D680046A
:1006F3007A0279E6D1C27BFF30CC067A0279F680A2
:10070300047A037906D1C27BFF30C9067A037916CE
:1007130080047A037926D1C27BFF30CB067A037932
:100723003680047A037946D1C27BFF30CD067A0343
:10073300795680047A037966D1C2F1DD7BFF5006D6
:100743007A03797680047A03797DC1C28B448A4522
:100753008946F1F48E478F4878C87CF07D017BFF92
:100763007A0479057E007F2511F6E5462403F9E432
:10077300354585444CF54D894E754F007550247BA6
:10078300017AF079C8D10D7BFF7A0379D9D1BA7B8D
:10079300FF7A0379EAD1C27BFF7A0379F0D1C2757C
:1007A3004C00754D00754E477B017AF079C81208ED
:1007B300A37BFF7A0379FFC1C2F1F4AB07AA067EDC
:1007C300F07FC87D327C00120C7E7BFF7A02794871
:1007D300D1BA7BFF7A02794CC1C230C81230CA0F3A
:1007E30030CC0C30C90930CB0630CD03D38001C3E4
:1007F300227F007EAC90A000D3E5829400E5839431
:10080300AC5017E4937006AE83AF82800D7420253D
:1008130082F582E43583F58380DE22E4FDFCC3EDBB
:100823009FEE6480F8EC6480985023E4FBFA900018
:1008330000A3E582B430FAE583B475F50BBB000180
:100843000AEB64194A70E70DBD00010C80D0228EBB
:10085300548F558B568A578958E4FFFE85558285F8
:100863005483E0FD74E02FF8A6050555E5557002A5
:1008730005540FBF00010EEF64204E70DFAB56AA84
:1008830057A958120162FFAEF0315A500DAB56AA68
:1008930057A958E475F02012018D7F027E00011ED6
:1008A3008B498A4A894B78ED7CF07D017BFF7A0680
:1008B300795F7E007F201200F685494F854A508577
:1008C3004B51E4F552F553FDFC7FFF7E033172ABD0
:1008D3004CAA4DA94E74A075F0001201C57F027E8B
:1008E30000111E7E007F207D007B017AF079ED12DE
:1008F30001E4AB4FAA50A95112011CFF604D74EDE6
:100903002553F58274F03552F583EFF0E5536419FE
:10091300455270227EF07FEDAB4CAA4DA94E115289
:100923007E007F207D007B017AF079ED1201E4E403
:10093300F552F55380080553E553700205527401CF
:100943002551F551E43550F55080A77EF07FEDAB8E
:100953004CAA4DA94E01528E838F82781876E0C03F
:10096300D075D01812DFF69202D0D0A202B3228E35
:10097300548F558C568D577819A65418A655781C44
:10098300A65618A657781DE4F608F608F6C0D075E3
:10099300D01812DFF99202D0D0A202B32275B202AC
:1009A3005380FB438604E4F5B243860443B301F565
:1009B300BD75987075EAD575BE8143E90143BD01E4
:1009C300D2AC228B3F8A4089411200038E428F436F
:1009D30078007CF07D017BFF7A04793C7E007FC840
:1009E3001200F6E543640545427021AB3FAA40A9D6
:1009F3004112011CB42415900002120135B4240CD9
:100A0300900004120135B42403D38001C39200E59E
:100A13004364284542702BAB3FAA40A94112011CF5
:100A23006424701E900001120135B4661590000213
:100A3300120135B4240C900027120135B42403D3DA
:100A43008001C392017E007FC87D007B017AF0792B
:100A5300001201E430005CAB3FAA40A941900001C1
:100A6300120135249E60191460251460311460311D
:100A730014603D24057048900003120135FF613E68
:100A8300AB3FAA40A941900003120135FF8062AB3E
:100A93003FAA40A941900003120135FF6188020675
:100AA300D7AB3FAA40A941900003120135FF80183C
:100AB3000207BC300109AB3FAA40A94102074F7BA3
:100AC300FF7A04792A0206C28F44E544B4310AD27C
:100AD300037BFF7A0379B08015E544B4300AC2037F
:100AE3007BFF7A0379B780067BFF7A0379BE020620
:100AF300C2C290C292C294C291C293C295EF24CF54
:100B03006012146019146020240370267BFF7A029C
:100B1300794F8024D2917BFF7A027956801AD2933F
:100B23007BFF7A02795D8010D2957BFF7A0279642C
:100B330080067BFF7A02796B0206C2C290C292C220
:100B430094C291C293C295EF24CF6012146019141A
:100B53006020240370267BFF7A0279828024D2905E
:100B63007BFF7A027989801AD2927BFF7A0279908D
:100B73008010D2947BFF7A02799780067BFF7A02FA
:100B8300799E0206C28F44E544B4300EC2B7D2CE7A
:100B9300D2B47BFF7A0379848040E54464317021C9
:100BA3001207DD400EC2B7D2B4D2CE7BFF7A0379EF
:100BB3007D8027D2CED2B7C2B47BFF7A03798B80F4
:100BC30019E544B4320ED2B4C2B7C2CE7BFF7A0366
:100BD300799280067BFF7A0379990206C2C0E0C04E
:100BE300F0C083C082C0D075D000C000C001C00275
:100BF300C003C004C005C006C00775BF803099029A
:100C0300C29930985485993EE53E640D6013E53EE4
:100C1300640A600DC3E5099463E508648094804029
:100C23001F7B017AF1797131C67E007F647D007B81
:100C3300017AF179711201E47508007509008017D2
:100C430074712509F58274F13508F583E53EF005E5
:100C530009E50970020508C29875BFC0D007D00620
:100C6300D005D004D003D002D001D000D0D0D082A0
:100C7300D083D0F0D0E032EF02DFF08E448F458C8A
:100C8300468D478A488B49754AA0754B00E4F54C5D
:100C9300F54DF54EF54FF550F551AE46AF47FDAA6C
:100CA30044A9457B011201E47F03917A50FAC3E51D
:100CB3004B9549E54A95485054C3E54F9547E5465A
:100CC3006480F8E54E6480985043E4F54CF54DE5B7
:100CD3004B254DF582E54A354CF583E493FF6020BF
:100CE300E545254FF582E544354EF583EFF0054D97
:100CF300E54D7002054C054FE54F7002054E80CF60
:0E0D03007420254BF54BE4354AF54A80A122B9
:00000001FF
