:0300000002018E6C
:10018E0078FFE4F6D8FD90F0007F007E06E4F0A341
:0A019E00DFFCDEFA75813C0201E38C
:1000030075BF0175BA10E4F5BF1204B8120492E487
:0B001300F5B8F5B9F5F8F5F9D2AF2209
:10045E00E4FDFCC3ED9FEE6480F8EC6480985023BD
:10046E00E4FBFA900000A3E582B430FAE583B4759C
:10047E00F50BBB00010AEB64194A70E70DBD0001D4
:03048E000C80D00F
:010491002248
:1004F600E4F508F509F50AF50B12000330CC04D231
:07050600B780F9C2B780F5D0
:0C04B80075910175900175B1FFE4F5B07D
:1004C400E5A85480F50C53A87F75B29053C9EF7515
:0604D400B2D0E50C42A8C5
:0104DA0022FF
:1002BB0023622330230D0A0023622331230D0A000E
:1002CB0023622332230D0A0023622333230D0A00FA
:1002DB00556E6B6E6F776E204C43204368616E6E6C
:1002EB00656C2E0D0A0023612330230D0A00236158
:1002FB002331230D0A0023612332230D0A002361CE
:10030B002333230D0A00556E6B6E6F776E204C43B3
:10031B0052204368616E6E656C2E0D0A00556E6B34
:10032B006E6F776E20436F6D6D616E640D0A00000A
:10033B0000000000000000000000000000000000B2
:03034B00000000AF
:1004DB0014290000000000000000000000000000D4
:0A04EB0000000000000002270000DE
:1004920075B2025380FB438604E4F5B243860443FB
:1004A200B301F5BD75987075EAD575BE8143E90152
:0604B20043BD01D2AC22A3
:10050D0012011C6010F5993099FDC299740129F9F9
:05051D00E43AFA80EB56
:0105220022B6
:1003D400C2B1C2B3C2B5EF24CF6012146019146065
:1003E40020240370267BFF7A0279BB8024D2B17B60
:1003F400FF7A0279C3801AD2B37BFF7A0279CB8069
:1004040010D2B57BFF7A0279D380067BFF7A02791A
:05041400DB12050D22C2
:10041900C2B0C2B2C2B4EF24CF6012146019146022
:1004290020240370267BFF7A0279F18024D2B07BE5
:10043900FF7A0279F9801AD2B27BFF7A03790180B7
:1004490010D2B47BFF7A03790980067BFF7A03799E
:050459001112050D2247
:06034E008B0E8A0F8910DE
:100354001205238E118F1278137C007D007BFF7AA7
:1003640003793A7E007F141200F67E007F147D002C
:100374007B007A007913120162E51264054511705D
:1003840045AB0EAA0FA91012011CB4240A90000454
:1003940012013564246002802DAB0EAA0FA91090BF
:1003A4000001120135249E600D04701A900003129E
:1003B4000135FF020419AB0EAA0FA9109000031215
:0F03C4000135FF0203D47BFF7A03792812050D60
:0103D3002207
:03002300020228AE
:10022800C0E0C0F0C083C082C0D075D000C000C09C
:1002380001C002C003C004C005C006C00775BF8066
:08024800309902C29930984D73
:1002500085990DE50D640D6013E50D640A600DC30D
:10026000E5289412E5276480948040207B007A0082
:10027000792912034E7E007F147D007B007A00797D
:1002800029120162752700752800800F742925281E
:0D029000F8A60D0528E52870020527C29884
:10029D0075BFC0D007D006D005D004D003D002D092
:0E02AD0001D000D0D0D082D083D0F0D0E0328B
:1001A8000204F6E493A3F8E493A34003F68001F273
:1001B80008DFF48029E493A3F85407240CC8C33358
:1001C800C4540F4420C8834004F456800146F6DF27
:1001D800E4800B01020408102040809004DBE47ED8
:1001E800019360BCA3FF543F30E509541FFEE4931C
:1001F800A360010ECF54C025E060A840B8E493A3E3
:10020800FAE493A3F8E493A3C8C582C8CAC583CA0D
:10021800F0A3C8C582C8CAC583CADFE9DEE780BEC5
:0104F5000006
:10002600E709F608DFFA8046E709F208DFFA803EBC
:1000360088828C83E709F0A3DFFA8032E309F608A9
:10004600DFFA8078E309F208DFFA807088828C8311
:10005600E309F0A3DFFA806489828A83E0A3F608C5
:10006600DFFA805889828A83E0A3F208DFFA804C9F
:1000760080D280FA80C680D4806980F28033801076
:1000860080A680EA809A80A880DA80E280CA8033DF
:1000960089828A83ECFAE493A3C8C582C8CCC58357
:1000A600CCF0A3C8C582C8CCC583CCDFE9DEE78027
:1000B6000D89828A83E493A3F608DFF9ECFAA9F0A6
:1000C600EDFB2289828A83ECFAE0A3C8C582C8CCFC
:1000D600C583CCF0A3C8C582C8CCC583CCDFEADE15
:1000E600E880DB89828A83E493A3F208DFF980CC77
:1000F60088F0EF60010E4E60C388F0ED2402B40470
:100106000050B9F582EB2402B4040050AF23234516
:06011600822390007673C5
:10011C00BB010689828A83E0225002E722BBFE02E1
:09012C00E32289828A83E4932214
:10013500BB010CE58229F582E5833AF583E022507F
:1001450006E92582F8E622BBFE06E92582F8E222C9
:0D015500E58229F582E5833AF583E49322E3
:10052300E4FFFE12011C600C0FEF70010E09E9706D
:05053300F20A80EF2236
:10016200EF4E6012EF60010EEDBB010B89828A83B4
:10017200F0A3DFFCDEFA2289F05007F709DFFCA9C1
:0C018200F022BBFEFCF309DFFCA9F02218
:00000001FF
