:10000000020445E4FFFE12011C600C0FEF70010EAC
:1000100009E970F20A80EF2248565F4E470D0A0048
:10002000A2C82202082FE709F608DFFA8046E7098E
:10003000F208DFFA803E88828C83E709F0A3DFFABA
:100040008032E309F608DFFA8078E309F208DFFA84
:10005000807088828C83E309F0A3DFFA8064898250
:100060008A83E0A3F608DFFA805889828A83E0A3B6
:10007000F208DFFA804C80D280FA80C680D4806992
:1000800080F28033801080A680EA809A80A880DA8F
:1000900080E280CA803389828A83ECFAE493A3C821
:1000A000C582C8CCC583CCF0A3C8C582C8CCC583E3
:1000B000CCDFE9DEE7800D89828A83E493A3F6082A
:1000C000DFF9ECFAA9F0EDFB2289828A83ECFAE0F1
:1000D000A3C8C582C8CCC583CCF0A3C8C582C8CC90
:1000E000C583CCDFEADEE880DB89828A83E493A3E0
:1000F000F208DFF980CC88F0EF60010E4E60C38813
:10010000F0ED2402B4040050B9F582EB2402B404EB
:100110000050AF232345822390007673BB010689EC
:10012000828A83E0225002E722BBFE02E322898218
:100130008A83E49322BB010CE58229F582E5833AA8
:10014000F583E0225006E92582F8E622BBFE06E9A7
:100150002582F8E222E58229F582E5833AF583E4F7
:100160009322BB010A89828A83E0F5F0A3E0225042
:100170000687F009E71922BBFE07E3F5F009E3194A
:100180002289828A83E493F5F074019322BB0107EC
:1001900089828A83020232500B09C5F027F7C5F025
:1001A0001937F722BBFE0D09F8E325F0F3C5F01966
:1001B000E338F322F889828A8374019325F0C5F02D
:1001C000F8E4933822BB010A89828A83F0E5F0A320
:1001D000F0225006F709A7F01922BBFE06F3E5F05E
:1001E00009F31922EF4E6012EF60010EEDBB010B17
:1001F00089828A83F0A3DFFCDEFA2289F05007F7B8
:1002000009DFFCA9F022BBFEFCF309DFFCA9F02208
:10021000F8BB010DE58229F582E5833AF583E8F024
:10022000225006E92582C8F622BBFE05E92582C8D0
:10023000F222C5F0F8A3E028F0C5F0F8E5821582B7
:1002400070021583E038F0220D0A00236223302368
:100250000D0A0023622331230D0A00236223322377
:100260000D0A0023622333230D0A00556E6B6E6F57
:10027000776E204C43204368616E6E656C2E0D0ACC
:100280000023612330230D0A0023612331230D0A4B
:100290000023612332230D0A0023612333230D0A37
:1002A00000556E6B6E6F776E204C43522043686131
:1002B0006E6E656C2E0D0A0048565F4F4B0D0A009E
:1002C00048565F4E470D0A0023632331230D0A0071
:1002D00023632330230D0A00556E6B6E6F776E20FB
:1002E000436861726765204D6F64650D0A00236580
:1002F0002331230D0A0023652330230D0A00556E98
:100300006B6E6F776E204856204D6F6E69746F72FA
:1003100020436F64650D0A0053657474696E67202D
:100320005555494420746F20002E2E2E2E0D0A00A4
:10033000506C6561736520776169742E2E2E0044C0
:100340004F4E450D0A0000000000000000000000B4
:10035000000000000000000000000000000000009D
:100360000000000000000000000000556E6B6E6F82
:10037000776E20436F6D6D616E640D0A00000000A2
:10038000000000000000000000000000000000006D
:10039000000000000000000000000000000000005D
:1003A000000000000000000000000000000000004D
:1003B000000000000000000000000000000000003D
:1003C000000000000000000000000000000000002D
:1003D000000000000000000000000000000000001D
:1003E000000000000000000000000000000000000D
:1003F00000000000000000000000000000000000FD
:1004000000000000000000000000000000000000EC
:1004100000000000000000000000000000000000DC
:1004200000000000000000000000000000000000CC
:1004300000000000000000000000000000000000BC
:100440000000000000787FE4F6D8FD90F0007F0007
:100450007E02E4F0A3DFFCDEFA75815802049A0202
:1004600005E5E493A3F8E493A34003F68001F208C2
:10047000DFF48029E493A3F85407240CC8C333C4E1
:10048000540F4420C8834004F456800146F6DFE44C
:10049000800B01020408102040809004DFE47E01FC
:1004A0009360BCA3FF543F30E509541FFEE493A3BF
:1004B00060010ECF54C025E060A840B8E493A3FAD1
:1004C000E493A3F8E493A3C8C582C8CAC583CAF05D
:1004D000A3C8C582C8CAC583CADFE9DEE780BEC13A
:1004E000036064F1710000000000000000000000E3
:1004F00000000000000000000000000000000000FC
:1005000000000000000000000000000000000000EB
:1005100000000000000000000000000000000000DB
:1005200000000000000000000000000000000000CB
:1005300000000000000000000000000000000000BB
:1005400000000000000000000002080000008B49CD
:100550008A4A894BE4F551F552E5501550AE4F707B
:1005600002154F4E6033AB4CAA4DA94E12011CFF31
:10057000AB49AA4AA94B0552E552AC51700205514C
:1005800014F5828C83EF120210EF60CD7401254EBA
:10059000F54EE4354DF54D80C0AB49AA4AA94B2232
:1005A000000000000000000000000000000000004B
:1005B000000000000000000000000000000000003B
:1005C00075BF0175BA10E4F5BFB1D9F1D5E4F5B83E
:1005D000F5B9F5F8F5F9D2AF22759104E4F5907507
:1005E000B1FFF5B022B1C030030C112040087BFFF1
:1005F0007A007918D1047F017E00F1FB80E97B014C
:100600007AF079C8311C6010F5993099FDC299745F
:100610000129F9E43AFA80EC228B448A458946F1B3
:10062000AB8E478F4878C87CF07D017BFF7A0379D9
:10063000467E007F2511F6E5462403F9E43545851D
:10064000444CF54D894E754F007550247B017AF06E
:1006500079C8B14E7BFF7A037918D104B1FE7BFFD4
:100660007A037929D1047BFF7A037930D104754C60
:1006700000754D00754E477B017AF079C8120AC1AA
:100680007BFF7A03793FC104F1ABAB07AA067EF08A
:100690007FC87D327C001209C4B1FE7BFF7A0279EB
:1006A00048C1048B3F8A40894111038E428F4378B1
:1006B000007CF07D017BFF7A03797D7E007FC8118D
:1006C000F6E54364054542701EAB3FAA40A941319F
:1006D0001CB424139000023135B4240B9000043173
:1006E00035B42403D38001C39200E5436428454216
:1006F0007027AB3FAA40A941311C6424701B9000B5
:10070000013135B466139000023135B4240B9000EA
:10071000273135B42403D38001C392017E007FC802
:100720007D007B017AF0790031E4300059AB3FAABB
:1007300040A9419000013135249E601914602514B0
:10074000603114603014603C240570459000033122
:1007500035FF02090EAB3FAA40A941900003313595
:10076000FF0208CAAB3FAA40A9419000033135FF00
:100770000209528024AB3FAA40A9419000033135C1
:10078000FF020997C188300108AB3FAA40A941C1C7
:10079000197BFF7A03796BC10411207BFF50067A25
:1007A0000279B880047A0279C0C1047F007EAC90DF
:1007B000A000D3E5829400E58394AC5017E49370D5
:1007C00006AE83AF82800D74202582F582E43583E6
:1007D000F58380DE2275B2025380FB438604E4F584
:1007E000B243860443B301F5BD75987075EAD575BB
:1007F000BE8143E90143BD01D2AC22E4FDFCC3ED5F
:100800009FEE6480F8EC6480985023E4FBFA90003B
:1008100000A3E582B430FAE583B475F50BBB0001A3
:100820000AEB64194A70E70DBD00010C80D022C0AC
:10083000E0C0F0C083C082C0D075D000C000C0014D
:10084000C002C003C004C005C006C00775BF803029
:100850009902C29930985585993EE53E640D601322
:10086000E53E640A600DC3E5099463E5086480947D
:100870008040207B017AF179711206A37E007F64AB
:100880007D007B017AF179711201E4750800750928
:1008900000801774712509F58274F13508F583E538
:1008A0003EF00509E50970020508C29875BFC0D081
:1008B00007D006D005D004D003D002D001D000D09C
:1008C000D0D082D083D0F0D0E032C2B1C2B3C2B5B2
:1008D000EF24CF6012146019146020240370267B6B
:1008E000FF7A02794B8024D2B17BFF7A0279538060
:1008F0001AD2B37BFF7A02795B8010D2B57BFF7A84
:1009000002796380067BFF7A02796B020604C2B02B
:10091000C2B2C2B4EF24CF60121460191460202454
:100920000370267BFF7A0279818024D2B07BFF7A24
:10093000027989801AD2B27BFF7A0279918010D233
:10094000B47BFF7A02799980067BFF7A0279A10253
:1009500006048F44E54464317021120020400EC229
:10096000B6C2B7C2927BFF7A0279C08027C292D208
:10097000B6D2B77BFF7A0279C88019E544B4300E4D
:10098000C2B7C2B6D2927BFF7A0279D080067BFFD3
:100990007A0279D80206048F44E544B4310AD203BE
:1009A0007BFF7A0279EE8015E544B4300AC2037BFE
:1009B000FF7A0279F680067BFF7A0279FE0206044E
:1009C000EF02DFF08E448F458C468D478A488B4975
:1009D000754AA0754B00E4F54CF54DF54EF54FF515
:1009E00050F551AE46AF47FDAA44A9457B0112011F
:1009F000E47F0331C050FAC3E54B9549E54A954879
:100A00005054C3E54F9547E5466480F8E54E648051
:100A1000985043E4F54CF54DE54B254DF582E54AFC
:100A2000354CF583E493FF6020E545254FF582E5DD
:100A300044354EF583EFF0054DE54D7002054C054C
:100A40004FE54F7002054E80CF7420254BF54BE4E7
:100A5000354AF54A80A1228E838F82781876E0C0CD
:100A6000D075D01812DFF69202D0D0A202B3228E37
:100A7000548F558B568A578958E4FFFE85558285D9
:100A80005483E0FD74E02FF8A6050555E555700286
:100A900005540FBF00010EEF64204E70DFAB56AA65
:100AA00057A958120162FFAEF05157500DAB56AA2C
:100AB00057A958E475F02012018D7F027E000207CD
:100AC000FB8B498A4A894B78ED7CF07D017BFF7A6C
:100AD0000579A07E007F201200F685494F854A5097
:100AE000854B51E4F552F553FDFC7FFF7E03717990
:100AF000AB4CAA4DA94E74A075F0001201C57F023F
:100B00007E001207FB7E007F207D007B017AF0795A
:100B1000ED1201E4AB4FAA50A95112011CFF604D28
:100B200074ED2553F58274F03552F583EFF0E553FB
:100B30006419455270227EF07FEDAB4CAA4DA94E50
:100B4000516F7E007F207D007B017AF079ED1201EC
:100B5000E4E4F552F55380080553E553700205525D
:100B600074012551F551E43550F55080A77EF07F92
:100B7000EDAB4CAA4DA94E416F8E548F558C568DBE
:100B8000577819A65418A655781CA65618A6577853
:100B90001DE4F608F608F6C0D075D01812DFF992F9
:070BA00002D0D0A202B32233
:00000001FF
