:0300000002055C9A
:10055C0078FFE4F6D8FD90F0007F007E06E4F0A36F
:0A056C00DFFCDEFA75816C02043C2E
:10058C0048656C6C6F20576F726C643A2025640D53
:02059C000A0053
:1000030075BF0175BA10E4F5BF12059E120536E4FB
:0B001300F5B8F5B9F5F8F5F9D2AF2209
:1004DB00E4FDFCC3ED9FEE6480F8EC648098502340
:1004EB00E4FBFA900000A3E582B430FAE583B4751F
:1004FB00F50BBB00010AEB64194A70E70DBD000157
:03050B000C80D091
:01050E0022CA
:10043C00E4F554F555F556F557120003A2B7B392EF
:10044C00B77E007F327D007B007A00792212039BFD
:10045C00755BFF755C05755D8C85545E85555F7BA2
:10046C00007A0079221200827B007A007922120530
:10047C00760555E555700205547F017E001204DBAC
:02048C0080BA34
:0D059E0075910175900175B1FF75B0FF22D8
:0605AB004142430D0A006D
:1005360075B2025380FB438604E4F5B24386044356
:10054600B301F5BD75987075EAD575BE8143E901AD
:0605560043BD01D2AC22FE
:100576001203826010F5993099FDC299740129F928
:05058600E43AFA80EBED
:01058B00224D
:0300230002048E46
:10048E00C0E0C083C082C0D075D000C001C002C021
:0E049E0003C00775BF80309902C29930981BC9
:1004AC0085996CE56CB431057590018003759000ED
:0B04BC00C2987BFF7A0579AB12057631
:1004C70075BFC0D007D003D002D001D0D0D082D022
:0404D70083D0E032BC
:10038200BB010689828A83E0225002E722BBFE0279
:09039200E32289828A83E49322AC
:10002600E567245BF8E60567227858300702785BB7
:10003600E475F0011204060203822000EB7F2ED243
:10004600008018EF540F2490D43440D4FF30040BB2
:10005600EF24BFB41A0050032461FFE5686002155F
:1000660068056BE56B7002056A30070D7858E47514
:10007600F001120406EF0203F402050F7403D2071F
:100086008003E4C207F5678B588A59895AE4F568F4
:10009600F56AF56BE56860077F2012006180F575EB
:1000A60069FFC201C200C202C203C205C206C2087B
:1000B60012002FFF700D3007057F00120072AF6B24
:1000C600AE6A22B4255FC2D5C20412002FFF24D027
:1000D600B40A00501A75F00A786830D50508B6FFDC
:1000E6000106C6A426F620D5047002D20380D924C0
:1000F600CFB41A00EF5004C2E5D204020272D20154
:1001060080C6D20080C0D20280BCD2D580BAD205C9
:1001160080B47F201200612002077401B568004098
:10012600F1120026FF12006102009AD208D2068060
:1001360095120026FB120026FA120026F94A4B7089
:100146000679437A037BFF20022EE568602A7E004B
:100156008E827583001203C760060EEE656970F025
:10016600C2D5EBC0E0EAC0E0E9C0E0EE1202B9D0C9
:10017600E0F9D0E0FAD0E0FB120382FF60AAEBC000
:10018600E0EAC0E0E9C0E0120061D0E02401F9D065
:10019600E03400FAD0E0FBE5690460DCD569D9807B
:1001A600877BFF7A0279B5D202809C79108002792A
:1001B60008C206C2088008D2D5790A8004790AC224
:1001C600D5E569047002F569E4FAFDFEFF12002622
:1001D600FC7B08200113120026FD7B1030000A125A
:1001E6000026FE120026FF7B20EC3382D592D550E6
:1001F60013C3E43000069FFFE49EFEE42001039D46
:10020600FDE49CFCE4CBF8C201EC700CCFCECDCC67
:10021600E824F8F870F38017C3EF33FFEE33FEEDF2
:1002260033FDEC33FCEB33FB994002FB0FD8E9EBD3
:10023600300105F8D0E0C448B201C0E00AEC4D4EEA
:100246004F78207B0070C2EAB5690040BCC0E0125E
:1002560002BBD0F0D0E0200104C4C0E0C4B201C0AB
:10026600F012004AD0F0D5F0EB02009A1204160103
:10027600375301B15801084C01044201B54F01BD85
:0F0286004401BD49011D4301C35501A74601A70E
:100295004501A747036350010C2D01102E01332B97
:1002A500011423013120034C2A00CC480000012B06
:1002B5003F3F3F00790AA2D5200314300509B91044
:1002C500020404B9080104A2D52006025001042045
:1002D50002689202B568005034C0E07F20300319EF
:1002E5007F30A20272067205500F120312C202C2BB
:1002F50006C205C2087F30800F300503E9C0E01251
:100305000061300503D0E0F9D0E0B568CC300517C1
:100315007F30B9100C1200617F583004077F788058
:1003250003B908031200613002057F2D0200617FC9
:10033500202008F87F2B2006F322920280CF286E1A
:10034500756C6C2900D2011200263001F8C20178C3
:100355006830D50108F60200CC2D504349581200EB
:10036500262403B405004001E490035E9312005275
:0D037500743A120052D2037568040201B1FF
:10039B00EF4E6012EF60010EEDBB010B89828A8379
:1003AB00F0A3DFFCDEFA2289F05007F709DFFCA986
:0C03BB00F022BBFEFCF309DFFCA9F022DD
:1003C700BB010CE58229F582E5833AF583E02250EB
:1003D70006E92582F8E622BBFE06E92582F8E22235
:0D03E700E58229F582E5833AF583E493224F
:1003F400BB010689828A83F0225002F722BBFE01E8
:02040400F322E1
:10040600FAE6FB0808E6F925F0F618E6CA3AF622F7
:10041600D083D082F8E4937012740193700DA3A375
:1004260093F8740193F5828883E473740293686089
:06043600EFA3A3A380DF89
:10050F00EFB40A07740D12051A740A309811A899DE
:10051F00B8130CC2983098FDA899C298B811F6304C
:07052F0099FDC299F5992224
:00000001FF
