:10000000020520E4FFFE12011C600C0FEF70010ED0
:1000100009E970F20A80EF2248565F4E470D0A0048
:10002300020BE5E709F608DFFA8046E709F208DF85
:10003300FA803E88828C83E709F0A3DFFA8032E3FB
:1000430009F608DFFA8078E309F208DFFA8070889E
:10005300828C83E309F0A3DFFA806489828A83E0D8
:10006300A3F608DFFA805889828A83E0A3F208DFC7
:10007300FA804C80D280FA80C680D4806980F28076
:1000830033801080A680EA809A80A880DA80E2809C
:10009300CA803389828A83ECFAE493A3C8C582C8F1
:1000A300CCC583CCF0A3C8C582C8CCC583CCDFE95B
:1000B300DEE7800D89828A83E493A3F608DFF9ECF7
:1000C300FAA9F0EDFB2289828A83ECFAE0A3C8C582
:1000D30082C8CCC583CCF0A3C8C582C8CCC583CCA9
:1000E300DFEADEE880DB89828A83E493A3F208DF18
:1000F300F980CC88F0EF60010E4E60C388F0ED24E8
:1001030002B4040050B9F582EB2402B4040050AFEA
:10011300232345822390007673BB010689828A8359
:10012300E0225002E722BBFE02E32289828A83E4B3
:100133009322BB010CE58229F582E5833AF583E03E
:10014300225006E92582F8E622BBFE06E92582F85D
:10015300E222E58229F582E5833AF583E49322BB23
:10016300010A89828A83E0F5F0A3E022500687F032
:1001730009E71922BBFE07E3F5F009E31922898297
:100183008A83E493F5F074019322BB010789828A81
:1001930083020232500B09C5F027F7C5F01937F770
:1001A30022BBFE0D09F8E325F0F3C5F019E338F39C
:1001B30022F889828A8374019325F0C5F0F8E493C9
:1001C3003822BB010A89828A83F0E5F0A3F022502A
:1001D30006F709A7F01922BBFE06F3E5F009F319A8
:1001E30022EF4E6012EF60010EEDBB010B89828A94
:1001F30083F0A3DFFCDEFA2289F05007F709DFFC66
:10020300A9F022BBFEFCF309DFFCA9F022F8BB0135
:100213000DE58229F582E5833AF583E8F02250065D
:10022300E92582C8F622BBFE05E92582C8F222C56C
:10023300F0F8A3E028F0C5F0F8E582158270021506
:1002430083E038F02223662300230A00236223304D
:10025300230A0023622331230A0023622332230A61
:100263000023622333230A0023556E6B6E6F776E70
:10027300204C43204368616E6E656C2E230A002375
:10028300612330230A0023612331230A00236123DE
:1002930032230A0023612333230A0023556E6B6E36
:1002A3006F776E204C4352204368616E6E656C2EEF
:1002B300230A0048565F52454144595F313A204F63
:1002C3004B0A0048565F52454144595F313A204E2C
:1002D300470A0048565F52454144595F323A204F1E
:1002E3004B0A0048565F52454144595F323A204E0B
:1002F300470A0048565F52454144595F333A204FFD
:100303004B0A0048565F52454144595F333A204EE9
:10031300470A0048565F4641554C545F313A204FD7
:100323004B0A0048565F4641554C545F313A204EC4
:10033300470A0048565F4641554C545F323A204FB6
:100343004B0A0048565F4641554C545F323A204EA3
:10035300470A0048565F4641554C545F333A204F95
:100363004B0A0048565F4641554C545F333A204E82
:10037300470A0023642331230A0023642330230A1A
:100383000023632330230A0023632331230A00233A
:10039300632332230A0023556E6B6E6F776E2043FF
:1003A3006861726765204D6F6465230A00236523C6
:1003B30031230A0023652330230A0023556E6B6E15
:1003C3006F776E204856204D6F6E69746F722043AD
:1003D3006F6465230A0053657474696E672055550D
:1003E300494420746F20002E2E2E2E0A00506C6577
:1003F30061736520776169742E2E2E00444F4E453C
:100403000A000000000000000000000000000000DF
:1004130000000000000000000000000000000000D9
:1004230000000000000000556E6B6E6F776E204376
:100433006F6D6D616E64310D0A00496E636F727288
:1004430065637420436F6D6D616E6420466F726DDA
:1004530061740D0A000000000000000000000000AD
:100463000000000000000000000000000000000089
:100473000000000000000000000000000000000079
:100483000000000000000000000000000000000069
:100493000000000000000000000000000000000059
:1004A3000000000000000000000000000000000049
:1004B3000000000000000000000000000000000039
:1004C3000000000000000000000000000000000029
:1004D3000000000000000000000000000000000019
:1004E3000000000000000000000000000000000009
:1004F30000000000000000000000000000000000F9
:1005030000000000000000000000000000000000E8
:1005130000000000000000000000000000787FE4FD
:10052300F6D8FD90F0007F007E02E4F0A3DFFCDE4E
:10053300FA7581580205750206BCE493A3F8E493A7
:10054300A34003F68001F208DFF48029E493A3F8C3
:100553005407240CC8C333C4540F4420C883400435
:10056300F456800146F6DFE4800B010204081020F4
:1005730040809005BAE47E019360BCA3FF543F30F2
:10058300E509541FFEE493A360010ECF54C025E098
:1005930060A840B8E493A3FAE493A3F8E493A3C850
:1005A300C582C8CAC583CAF0A3C8C582C8CAC583E1
:1005B300CADFE9DEE780BEC1036064F171000000B9
:1005C3000000000000000000000000000000000028
:1005D3000000000000000000000000000000000018
:1005E3000000000000000000000000000000000008
:1005F30000000000000000000000000000000000F8
:1006030000000000000000000000000000000000E7
:1006130000000000000000000000000000000000D7
:100623000002080000008B498A4A894BE4F551F522
:1006330052E5501550AE4F7002154F4E6033AB4C20
:10064300AA4DA94E12011CFFAB49AA4AA94B055258
:10065300E552AC517002055114F5828C83EF1202FE
:1006630010EF60CD7401254EF54EE4354DF54D8008
:10067300C0AB49AA4AA94B220000000000000000B9
:100683000000000000000000000000000000000067
:10069300000000000000000075BF0175BA10E4F50A
:1006A300BFD1B5120994E4F5B8F5B9F5F8F5F9D267
:1006B300AF2275913F75B1F022D19B30030CF1FB52
:1006C30040087BFF7A007918D1DE7F017E00120893
:1006D3001280E8D1DE7B017AF079C8311C6010F515
:1006E300993099FDC299740129F9E43AFA80EC2210
:1006F3007BFF30C8067A0279B680047A0279C6D1C4
:10070300DE7BFF30CA067A0279D680047A0279E664
:10071300D1DE7BFF30CC067A0279F680047A037946
:1007230006D1DE7BFF30C9067A03791680047A038B
:100733007926D1DE7BFF30CB067A03793680047AC3
:10074300037946D1DE7BFF30CD067A0379568004E8
:100753007A037966D1DEF1FB7BFF50067A03797663
:1007630080047A03797DC1DE8B448A458946120D64
:10077300168E478F4878C87CF07D017BFF7A047919
:10078300057E007F2511F6E5462403F9E43545850A
:10079300444CF54D894E754F007550247B017AF01A
:1007A30079C8D1297BFF7A0379D9D1D67BFF7A0324
:1007B30079EAD1DE7BFF7A0379F0D1DE754C0075DF
:1007C3004D00754E477B017AF079C81208977BFF7D
:1007D3007A0379FFC1DE120D16AB07AA067EF07FFE
:1007E300C87D327C00120C837BFF7A027948D1D614
:1007F3007BFF7A02794CC1DE30C81230CA0F30CC8D
:100803000C30C90930CB0630CD03D38001C322E4B9
:10081300FDFCC3ED9FEE6480F8EC6480985023E404
:10082300FBFA900000A3E582B430FAE583B475F5D2
:100833000BBB00010AEB64194A70E70DBD00010C04
:1008430080D0228E548F558B568A578958E4FFFEE9
:10085300855582855483E0FD74E02FF8A605055580
:10086300E555700205540FBF00010EEF64204E7072
:10087300DFAB56AA57A958120162FFAEF0314E50B2
:100883000DAB56AA57A958E475F02012018D7F02CB
:100893007E0001128B498A4A894B78ED7CF07D01F9
:1008A3007BFF7A06797B7E007F201200F685494F15
:1008B300854A50854B51E4F552F553FDFC7FFF7E8D
:1008C300033166AB4CAA4DA94E74A075F00012011A
:1008D300C57F027E0011127E007F207D007B017A9E
:1008E300F079ED1201E4AB4FAA50A95112011CFF9C
:1008F300604D74ED2553F58274F03552F583EFF0B6
:10090300E5536419455270227EF07FEDAB4CAA4D3E
:10091300A94E11467E007F207D007B017AF079EDA0
:100923001201E4E4F552F55380080553E5537002D0
:10093300055274012551F551E43550F55080A77ED9
:10094300F07FEDAB4CAA4DA94E01468E838F827882
:100953001876E0C0D075D01812DFF69202D0D0A27C
:1009630002B3228E548F558C568D577819A654187E
:10097300A655781CA65618A657781DE4F608F6085F
:10098300F6C0D075D01812DFF99202D0D0A202B30C
:100993002275B2025380FB438604E4F5B243860416
:1009A30043B301F5BD75987075EAD575BE8143E90A
:1009B3000143BD01D2AC228B3F8A4089411200031F
:1009C3008E428F4378007CF07D017BFF7A04795857
:1009D3007E007FC81200F6E543640545427021ABF3
:1009E3003FAA40A94112011CB42415900002120130
:1009F30035B4240C900004120135B42403D38001D0
:100A0300C39200E54364284542702BAB3FAA40A93B
:100A13004112011C6424701E900001120135B4665A
:100A230015900002120135B4240C900027120135F1
:100A3300B42403D38001C392017E007FC87D007B71
:100A4300017AF079001201E430006DAB3FAA40A9AE
:100A530041900001120135249E6019146025146031
:100A63003114603114603D2405703C900003120181
:100A730035FF6143AB3FAA40A94190000312013502
:100A8300FF8073AB3FAA40A941900003120135FFD9
:100A9300618D0206F3AB3FAA40A941900003120106
:100AA30035FF80290207D97BFF7A04792A1206DEF3
:100AB300AB3FAA40A9418012300109AB3FAA40A92C
:100AC3004102076B7BFF7A04793D0206DE8F44E522
:100AD30044B4310AD2037BFF7A0379B08015E5442D
:100AE300B4300AC2037BFF7A0379B780067BFF7AAF
:100AF3000379BE0206DEC290C292C294C291C2932F
:100B0300C295EF24CF60121460191460202403707F
:100B1300267BFF7A02794F8024D2917BFF7A027978
:100B230056801AD2937BFF7A02795D8010D2957B2F
:100B3300FF7A02796480067BFF7A02796B0206DE14
:100B4300C290C292C294C291C293C295EF24CF6065
:100B530012146019146020240370267BFF7A027933
:100B6300828024D2907BFF7A027989801AD2927B89
:100B7300FF7A0279908010D2947BFF7A0279978072
:100B8300067BFF7A02799E0206DE8F44E544B43089
:100B93000EC2B7D2CED2B47BFF7A0379848040E50C
:100BA30044643170211207FB400EC2B7D2B4D2CED7
:100BB3007BFF7A03797D8027D2CED2B7C2B47BFF85
:100BC3007A03798B8019E544B4320ED2B4C2B7C22A
:100BD300CE7BFF7A03799280067BFF7A03799902B1
:100BE30006DEC0E0C0F0C083C082C0D075D000C0B4
:100BF30000C001C002C003C004C005C006C0077521
:100C0300BF80309902C29930985485993EE53E647D
:100C13000D6013E53E640A600DC3E5099463E508BE
:100C230064809480401F7B017AF1797131BA7E0030
:100C33007F647D007B017AF179711201E47508000C
:100C4300750900801774712509F58274F13508F56B
:100C530083E53EF00509E50970020508C29875BFF2
:100C6300C0D007D006D005D004D003D002D001D025
:100C730000D0D0D082D083D0F0D0E032EF02DFF0CA
:100C83008E448F458C468D478A488B49754AA0759B
:100C93004B00E4F54CF54DF54EF54FF550F551AEDF
:100CA30046AF47FDAA44A9457B011201E47F0391A6
:100CB3007F50FAC3E54B9549E54A95485054C3E53F
:100CC3004F9547E5466480F8E54E6480985043E4C9
:100CD300F54CF54DE54B254DF582E54A354CF5834D
:100CE300E493FF6020E545254FF582E544354EF555
:100CF30083EFF0054DE54D7002054C054FE54F7050
:100D030002054E80CF7420254BF54BE4354AF54A56
:100D130080A1227F007EAC90A000D3E5829400E501
:100D23008394AC5017E4937006AE83AF82800D7446
:0D0D3300202582F582E43583F58380DE22E1
:00000001FF
