:100000000202F6C100140A00000000000000000017
:1000100000000000000000000000000208000000D6
:10002000A2C822020814E709F608DFFA8046E709A9
:10003000F208DFFA803E88828C83E709F0A3DFFABA
:100040008032E309F608DFFA8078E309F208DFFA84
:10005000807088828C83E309F0A3DFFA8064898250
:100060008A83E0A3F608DFFA805889828A83E0A3B6
:10007000F208DFFA804C80D280FA80C680D4806992
:1000800080F28033801080A680EA809A80A880DA8F
:1000900080E280CA803389828A83ECFAE493A3C821
:1000A000C582C8CCC583CCF0A3C8C582C8CCC583E3
:1000B000CCDFE9DEE7800D89828A83E493A3F6082A
:1000C000DFF9ECFAA9F0EDFB2289828A83ECFAE0F1
:1000D000A3C8C582C8CCC583CCF0A3C8C582C8CC90
:1000E000C583CCDFEADEE880DB89828A83E493A3E0
:1000F000F208DFF980CC88F0EF60010E4E60C38813
:10010000F0ED2402B4040050B9F582EB2402B404EB
:100110000050AF232345822390007673BB010689EC
:10012000828A83E0225002E722BBFE02E322898218
:100130008A83E49322BB010CE58229F582E5833AA8
:10014000F583E0225006E92582F8E622BBFE06E9A7
:100150002582F8E222E58229F582E5833AF583E4F7
:100160009322BB010A89828A83E0F5F0A3E0225042
:100170000687F009E71922BBFE07E3F5F009E3194A
:100180002289828A83E493F5F074019322BB0107EC
:1001900089828A83020210500B09C5F027F7C5F047
:1001A0001937F722BBFE0D09F8E325F0F3C5F01966
:1001B000E338F322F889828A8374019325F0C5F02D
:1001C000F8E4933822BB010A89828A83F0E5F0A320
:1001D000F0225006F709A7F01922BBFE06F3E5F05E
:1001E00009F31922EF4E6012EF60010EEDBB010B17
:1001F00089828A83F0A3DFFCDEFA2289F05007F7B8
:1002000009DFFCA9F022BBFEFCF309DFFCA9F02208
:10021000C5F0F8A3E028F0C5F0F8E5821582700279
:100220001583E038F0220D0A0023622330230D0AE3
:100230000023622331230D0A0023622332230D0A97
:100240000023622333230D0A00556E6B6E6F776EA9
:10025000204C43204368616E6E656C2E0D0A0023AE
:10026000612330230D0A0023612331230D0A00236B
:10027000612332230D0A0023612333230D0A005525
:100280006E6B6E6F776E204C4352204368616E6ECA
:10029000656C2E0D0A0048565F4F4B0D0A004856FC
:1002A0005F4E470D0A0023632331230D0A002363A9
:1002B0002330230D0A00556E6B6E6F776E204368F6
:1002C00061726765204D6F64650D0A0023652331F7
:1002D000230D0A0023652330230D0A00556E6B6E33
:1002E0006F776E204856204D6F6E69746F72204391
:1002F0006F64650D0A00787FE4F6D8FD90F0007F0A
:10030000007E02E4F0A3DFFCDEFA75816502034B98
:10031000020418E493A3F8E493A34003F68001F2E7
:1003200008DFF48029E493A3F85407240CC8C333EE
:10033000C4540F4420C8834004F456800146F6DFBD
:10034000E4800B0102040810204080900003E47E4A
:10035000019360BCA3FF543F30E509541FFEE493B2
:10036000A360010ECF54C025E060A840B8E493A379
:10037000FAE493A3F8E493A3C8C582C8CAC583CAA4
:10038000F0A3C8C582C8CAC583CADFE9DEE780BE5C
:10039000556E6B6E6F776E20436F6D6D616E640D81
:1003A0000A00000000000000000000000000000043
:1003B000000000000000E4FFFE12011C600C0FEFC3
:1003C00070010E09E970F20A80EF2248565F4E472D
:1003D0000D0A000000000000000000000000000006
:1003E000000000000000000000000000000000000D
:1003F00000000075BF0175BA10E4F5BF910CF1EE75
:10040000E4F5B8F5B9F5F8F5F9D2AF22759104E441
:10041000F59075B1FFF5B02271F330000C1120405A
:10042000087BFF7A0379CB91317F017E00B1638035
:10043000E9311C6010F5993099FDC299740129F9D0
:10044000E43AFA80EC221208DAAB07AA067EF07FC3
:10045000647D327C00D1457B017AF0796491317BF7
:10046000FF7A02792680CA8B3F8A40894171B68E15
:10047000428F4378447C007D007BFF7A0379A27E23
:10048000007F1411F67E007F147D007B007A0079D6
:100490004431E4E54364054542706BAB3FAA40A993
:1004A00041311CB424099000043135642460028079
:1004B00055AB3FAA40A9419000013135249E6018F8
:1004C00014602314602E14602D14603824057036D7
:1004D0009000033135FFC102AB3FAA40A941900013
:1004E000033135FFA1BFAB3FAA40A94190000331C2
:1004F00035FF802C8018AB3FAA40A9419000033102
:1005000035FFA19791467BFF7A03799081311120C5
:100510007BFF50067A02799680047A02799E8131B7
:100520008F58E558643170201120400EC2B6C2B712
:10053000C2927BFF7A02799E8027C292D2B6D2B74E
:100540007BFF7A0279A68019E558B4300EC2B7C293
:10055000B6D2927BFF7A0279AE80067BFF7A02796F
:10056000B68131E4FDFCC3ED9FEE6480F8EC64805D
:10057000985023E4FBFA900000A3E582B430FAE53A
:1005800083B475F50BBB00010AEB64194A70E70DE3
:10059000BD00010C80D0228F58E558B4310AD2003A
:1005A0007BFF7A0279CC8015E558B4300AC2007B13
:1005B000FF7A0279D480067BFF7A0279DC8131C22E
:1005C000B1C2B3C2B5EF24CF601214601914602019
:1005D000240370267BFF7A0279298024D2B17BFF25
:1005E0007A027931801AD2B37BFF7A02793980108E
:1005F000D2B57BFF7A02794180067BFF7A02794986
:100600008131C2B0C2B2C2B4EF24CF6012146019FB
:10061000146020240370267BFF7A02795F8024D245
:10062000B07BFF7A027967801AD2B27BFF7A0279B7
:100630006F8010D2B47BFF7A02797780067BFF7AD5
:1006400002797F81318E588F598C5A8D5B8A5C8BF1
:100650005D755EA0755F00E4F560F561F562F563B8
:10066000F564F565AE5AAF5BFDAA58A9597B013117
:10067000E47F03F1D250FAC3E55F955DE55E955CDA
:100680005054C3E563955BE55A6480F8E562648085
:10069000985043E4F560F561E55F2561F582E55E1C
:1006A0003560F583E493FF6020E5592563F582E525
:1006B000583562F583EFF00561E56170020560056C
:1006C00063E5637002056280CF7420255FF55FE407
:1006D000355EF55E80A1228B218A22892378967C63
:1006E000F07D017BFF7A0379D37E007F2011F685B0
:1006F0002127852228852329E4F52AF52BFDFC7F77
:10070000FF7E031208ACAB24AA25A92674A075F0BD
:100710000031C57F027E00B1637E007F207D007BBB
:10072000017AF0799631E4AB27AA28A929311CFF78
:10073000604C7496252BF58274F0352AF583EFF022
:10074000E52B6419452A70217EF07F96AB24AA25FB
:10075000A926F1887E007F207D007B017AF07996C2
:1007600031E4E4F52AF52B8008052BE52B70020512
:100770002A74012529F529E43528F52880A97EF079
:100780007F96AB24AA25A9268E2C8F2D8B2E8A2FFF
:100790008930E4FFFE852D82852C83E0FD74E02FF7
:1007A000F8A605052DE52D7002052C0FBF00010EE2
:1007B000EF64204E70DFAB2EAA2FA9303162FFAE5E
:1007C000F0F1D6500CAB2EAA2FA930E475F02031F1
:1007D0008D22EF02DFF08E838F82781876E0C0D012
:1007E00075D01812DFF69201D0D0A201B32275B2F3
:1007F000025380FB438604E4F5B243860443B3010D
:10080000F5BD75987075EAD575BE8143E90143BDA4
:1008100001D2AC22C0E0C0F0C083C082C0D075D08D
:1008200000C000C001C002C003C004C005C006C0B3
:100830000775BF80309902C29930984D85993EE581
:100840003E640D6013E53E640A600DC3E509941231
:10085000E5086480948040207B007A00790A1204C5
:10086000677E007F147D007B007A00790A1201E424
:10087000750800750900800F740A2509F8A63E0561
:1008800009E50970020508C29875BFC0D007D006F7
:10089000D005D004D003D002D001D000D0D0D08277
:1008A000D083D0F0D0E03212DFF3B3228E318F321A
:1008B0008C338D347819A63118A632781CA63318DB
:1008C000A634781DE4F608F608F6C0D075D01812E4
:1008D000DFF99202D0D0A202B3227F007EAC90A0BA
:1008E00000D3E5829400E58394AC5017E49370063E
:1008F000AE83AF82800D74202582F582E43583F5C6
:040900008380DE22F0
:00000001FF
