:10000000020248E4FFFE12011C600C0FEF70010EAB
:1000100009E970F20A80EF2248565F4E470D0A0048
:10002300020C2FE709F608DFFA8046E709F208DF3A
:10003300FA803E88828C83E709F0A3DFFA8032E3FB
:1000430009F608DFFA8078E309F208DFFA8070889E
:10005300828C83E309F0A3DFFA806489828A83E0D8
:10006300A3F608DFFA805889828A83E0A3F208DFC7
:10007300FA804C80D280FA80C680D4806980F28076
:1000830033801080A680EA809A80A880DA80E2809C
:10009300CA803389828A83ECFAE493A3C8C582C8F1
:1000A300CCC583CCF0A3C8C582C8CCC583CCDFE95B
:1000B300DEE7800D89828A83E493A3F608DFF9ECF7
:1000C300FAA9F0EDFB2289828A83ECFAE0A3C8C582
:1000D30082C8CCC583CCF0A3C8C582C8CCC583CCA9
:1000E300DFEADEE880DB89828A83E493A3F208DF18
:1000F300F980CC88F0EF60010E4E60C388F0ED24E8
:1001030002B4040050B9F582EB2402B4040050AFEA
:10011300232345822390007673BB010689828A8359
:10012300E0225002E722BBFE02E32289828A83E4B3
:100133009322BB010CE58229F582E5833AF583E03E
:10014300225006E92582F8E622BBFE06E92582F85D
:10015300E222E58229F582E5833AF583E49322BB23
:10016300010A89828A83E0F5F0A3E022500687F032
:1001730009E71922BBFE07E3F5F009E31922898297
:100183008A83E493F5F074019322BB010789828A81
:1001930083020232500B09C5F027F7C5F01937F770
:1001A30022BBFE0D09F8E325F0F3C5F019E338F39C
:1001B30022F889828A8374019325F0C5F0F8E493C9
:1001C3003822BB010A89828A83F0E5F0A3F022502A
:1001D30006F709A7F01922BBFE06F3E5F009F319A8
:1001E30022EF4E6012EF60010EEDBB010B89828A94
:1001F30083F0A3DFFCDEFA2289F05007F709DFFC66
:10020300A9F022BBFEFCF309DFFCA9F022F8BB0135
:100213000DE58229F582E5833AF583E8F02250065D
:10022300E92582C8F622BBFE05E92582C8F222C56C
:10023300F0F8A3E028F0C5F0F8E582158270021506
:1002430083E038F022787FE4F6D8FD90F0007F0059
:100253007E02E4F0A3DFFCDEFA75811702029D0241
:1002630006E3E493A3F8E493A34003F68001F208C2
:10027300DFF48029E493A3F85407240CC8C333C4E0
:10028300540F4420C8834004F456800146F6DFE44B
:10029300800B01020408102040809002E2E47E01FA
:1002A3009360BCA3FF543F30E509541FFEE493A3BE
:1002B30060010ECF54C025E060A840B8E493A3FAD0
:1002C300E493A3F8E493A3C8C582C8CAC583CAF05C
:1002D300A3C8C582C8CAC583CADFE9DEE780BEC139
:1002E300036064F1710000000000000000000000E2
:1002F30000000000000000000000000000000000FB
:1003030000000000000000000000000000000000EA
:1003130000000000000000000000000000000000DA
:1003230000000000000000000000000000000000CA
:1003330000000000000000000000000000000000BA
:1003430000000000000000000002160000008B49BE
:100353008A4A894BE4F551F552E5501550AE4F707A
:1003630002154F4E6033AB4CAA4DA94E12011CFF30
:10037300AB49AA4AA94B0552E552AC51700205514B
:1003830014F5828C83EF120210EF60CD7401254EB9
:10039300F54EE4354DF54D80C0AB49AA4AA94B2231
:1003A3002366230062666366393432382D656566D9
:1003B300362D343236312D616532652D653964361B
:1003C300366337653364333100230A0023622330F5
:1003D300230A0023622331230A0023622332230AE0
:1003E3000023622333230A0023556E6B6E6F776EEF
:1003F300204C43204368616E6E656C2E230A0023F4
:10040300612330230A0023612331230A002361235C
:1004130032230A0023612333230A0023556E6B6EB4
:100423006F776E204C4352204368616E6E656C2E6D
:10043300230A0048565F52454144595F313A204FE1
:100443004B0A0048565F52454144595F313A204EAA
:10045300470A0048565F52454144595F323A204F9C
:100463004B0A0048565F52454144595F323A204E89
:10047300470A0048565F52454144595F333A204F7B
:100483004B0A0048565F52454144595F333A204E68
:10049300470A0048565F4641554C545F313A204F56
:1004A3004B0A0048565F4641554C545F313A204E43
:1004B300470A0048565F4641554C545F323A204F35
:1004C3004B0A0048565F4641554C545F323A204E22
:1004D300470A0048565F4641554C545F333A204F14
:1004E3004B0A0048565F4641554C545F333A204E01
:1004F300470A0023642331230A0023642330230A99
:100503000023632330230A0023632331230A0023B8
:10051300632332230A0023556E6B6E6F776E20437D
:100523006861726765204D6F6465230A0023652344
:1005330031230A0023652330230A0023556E6B6E93
:100543006F776E204856204D6F6E69746F7220432B
:100553006F6465230A0053657474696E672055558B
:10056300494420746F20002E2E2E2E0A00506C65F5
:1005730061736520776169742E2E2E00444F4E45BA
:100583000A0000000000000000000000000000005E
:100593000000000000000000000000000000000058
:1005A30000000000000000556E6B6E6F776E2043F5
:1005B3006F6D6D616E64310D0A00496E636F727207
:1005C30065637420436F6D6D616E6420466F726D59
:1005D30061740D0A0000000000000000000000002C
:1005E3000000000000000000000000000000000008
:1005F30000000000000000000000000000000000F8
:1006030000000000000000000000000000000000E7
:1006130000000000000000000000000000000000D7
:1006230000000000000000000000000000000000C7
:1006330000000000000000000000000000000000B7
:1006430000000000000000000000000000000000A7
:100653000000000000000000000000000000000097
:100663000000000000000000000000000000000087
:100673000000000000000000000000000000000077
:100683000000000000000000000000000000000067
:100693000000000000000000000000000000000057
:1006A3000000000000000000000000000000000047
:1006B3000000000000000000000000000075BF0102
:1006C30075BA10E4F5BFD1D9F1B8E4F5B8F5B9F5C9
:1006D300F8F5F9D2AF2275913F75B1F075B050229C
:1006E300D1C030030CF1A140087BFF7A007918D107
:1006F300FC7F017E00F1DE80E9311C6010F599304A
:1007030099FDC299740129F9E43AFA80EC227BFF3E
:1007130030C8067A04793680047A047946D1FC7BA2
:10072300FF30CA067A04795680047A047966D1FCCC
:100733007BFF30CC067A04797680047A047986D1FB
:10074300FC7BFF30C9067A04799680047A0479A683
:10075300D1FC7BFF30CB067A0479B680047A047926
:10076300C6D1FC7BFF30CD067A0479D680047A04A7
:1007730079E6D1FCF1A17BFF50067A0479F6800477
:100783007A0479FDC1FC7BFF7A0379A3D1FC7BFF5B
:100793007A0379A7D1FC7BFF7A0379CCC1FC30C8FB
:1007A3001230CA0F30CC0C30C90930CB0630CD0320
:1007B300D38001C32275B2025380FB438604E4F560
:1007C300B243860443B301F5BD75987075EAD575D8
:1007D300BE8143E90143BD01D2AC22E4FDFCC3ED7C
:1007E3009FEE6480F8EC6480985023E4FBFA900059
:1007F30000A3E582B430FAE583B475F50BBB0001C1
:100803000AEB64194A70E70DBD00010C80D0228BFE
:100813003F8A4089411200038E428F4378007CF067
:100823007D017BFF7A0579D87E007FC81200F6E54B
:1008330043640545427021AB3FAA40A94112011C04
:10084300B42415900002120135B4240C9000041254
:100853000135B42403D38001C39200E543642845E2
:1008630042702BAB3FAA40A94112011C6424701EA5
:10087300900001120135B46615900002120135B4DF
:10088300240C900027120135B42403D38001C392B2
:10089300017E007FC87D007B017AF079001201E4BC
:1008A30030006DAB3FAA40A94190000112013524ED
:1008B3009E601914602514603114603114603D2466
:1008C30005703C900003120135FF618DAB3FAA40D8
:1008D300A941900003120135FF6143AB3FAA40A930
:1008E30041900003120135FF61D7020711AB3FAA04
:1008F30040A941900003120135FF41C20207897BE1
:10090300FF7A0579AA1206FCAB3FAA40A9418011E0
:10091300300108AB3FAA40A94180097BFF7A0579E2
:10092300BD0206FC8B448A45894651EB8E478F48AE
:1009330078C87CF07D017BFF7A0579857E007F2571
:100943001200F6E5462403F9E4354585444CF54D9C
:10095300894E754F007550247B017AF079C81203D4
:10096300517BFF7A0579591206FC7B017AF079C82D
:100973001206FC7BFF7A05796A1206FC7BFF7A0577
:1009830079701206FC754C00754D00754E477B015E
:100993007AF079C831A27BFF7A05797F0206FC8B56
:1009A300498A4A894B78ED7CF07D017BFF7A067991
:1009B300A07E007F201200F685494F854A50854B63
:1009C30051E4F552F553FDFC7FFF7E037115AB4CEB
:1009D300AA4DA94E74A075F0001201C57F027E00D6
:1009E3001207DE7E007F207D007B017AF079ED1215
:1009F30001E4AB4FAA50A95112011CFF604D74EDE5
:100A03002553F58274F03552F583EFF0E5536419FD
:100A1300455270227EF07FEDAB4CAA4DA94E515842
:100A23007E007F207D007B017AF079ED1201E4E402
:100A3300F552F55380080553E553700205527401CE
:100A43002551F551E43550F55080A77EF07FEDAB8D
:100A53004CAA4DA94E8E548F558B568A578958E40C
:100A6300FFFE855582855483E0FD74E02FF8A605CB
:100A73000555E555700205540FBF00010EEF6420C4
:100A83004E70DFAB56AA57A958120162FFAEF05160
:100A9300AA500DAB56AA57A958E475F02012018D40
:100AA3007F027E000207DE8E838F82781876E0C095
:100AB300D075D01812DFF69202D0D0A202B3228FE3
:100AC30044E544B4310AD2037BFF7A0579308015BB
:100AD300E544B4300AC2037BFF7A05793780067B8D
:100AE300FF7A05793E0206FC7F007EAC90A000D31E
:100AF300E5829400E58394AC5017E4937006AE83CB
:100B0300AF82800D74202582F582E43583F58380DE
:100B1300DE228E548F558C568D577819A65418A6FD
:100B230055781CA65618A657781DE4F608F608F65D
:100B3300C0D075D01812DFF99202D0D0A202B3222E
:100B4300C290C293C294C291C292C295EF24CF6065
:100B530012146019146020240370267BFF7A037932
:100B6300CF8024D2917BFF7A0379D6801AD2927BED
:100B7300FF7A0379DD8010D2957BFF7A0379E480D5
:100B8300067BFF7A0379EB0206FCC290C293C29400
:100B9300C291C292C295EF24CF60121460191460FF
:100BA30020240370267BFF7A0479028024D2907B71
:100BB300FF7A047909801AD2937BFF7A0479108033
:100BC30010D2947BFF7A04791780067BFF7A04792D
:100BD3001E0206FC8F44E544B4300EC2B7D2B6D22F
:100BE300B47BFF7A0579048040E5446431702112B7
:100BF30007A1400EC2B7D2B4D2B67BFF7A0479FD07
:100C03008027D2B6D2B7C2B47BFF7A05790B80199D
:100C1300E544B4320ED2B4C2B7C2B67BFF7A0579CB
:100C23001280067BFF7A0579190206FCC0E0C0F04A
:100C3300C083C082C0D075D000C000C001C002C054
:100C430003C004C005C006C00775BF80309902C247
:100C53009930985485993EE53E640D6013E53E64F2
:100C63000A600DC3E5179463E51664809480401F02
:100C73007B017AF1797111127E007F647D007B0123
:100C83007AF179711201E4751600751700801774F3
:100C9300712517F58274F13516F583E53EF00517D6
:100CA300E51770020516C29875BFC0D007D006D0ED
:100CB30005D004D003D002D001D000D0D0D082D050
:100CC30083D0F0D0E032EF02DFF08E088F098C0A78
:100CD3008D0B8A0C8B0D750EA0750F00E4F510F5C6
:100CE30011F512F513F514F515AE0AAF0BFDAA08AD
:100CF300A9097B011201E47F0391C950FAC3E50FEF
:100D0300950DE50E950C5054C3E513950BE50A6458
:100D130080F8E5126480985043E4F510F511E50F6F
:100D23002511F582E50E3510F583E493FF6020E588
:100D3300092513F582E5083512F583EFF00511E572
:100D430011700205100513E5137002051280CF74AC
:0D0D530020250FF50FE4350EF50E80A122CE
:00000001FF
